:020000040800F2
:1000000000200020B965000861440008634400082E
:1000100000000000000000000000000000000000E0
:10002000000000000000000000000000654400081F
:100030000000000000000000674400086944000858
:1000400009660008096600080966000809660008D4
:1000500009660008553500080966000809660008A9
:10006000096600080966000809660008714400086E
:1000700009660008096600080966000809660008A4
:10008000096600080966000800000000096600080B
:100090000966000809660008096600080966000884
:1000A0000966000809660008096600080966000874
:1000B00081440008000000000966000800000000FC
:1000C00010B5064C2378002B07D1054B002B02D02E
:1000D000044800E000BF0123237010BD8800002009
:1000E000000000007C820008044B10B5002B03D0F8
:1000F0000349044800E000BF10BDC04600000000F6
:100100008C0000207C82000803B47146490840003E
:100110004900095E49008E4403BC70470022430831
:100120008B4274D303098B425FD3030A8B4244D3BF
:10013000030B8B4228D3030C8B420DD3FF22090201
:1001400012BA030C8B4202D31212090265D0030BC0
:100150008B4219D300E0090AC30B8B4201D3CB03B6
:10016000C01A5241830B8B4201D38B03C01A5241F8
:10017000430B8B4201D34B03C01A5241030B8B42FA
:1001800001D30B03C01A5241C30A8B4201D3CB02E5
:10019000C01A5241830A8B4201D38B02C01A5241CA
:1001A000430A8B4201D34B02C01A5241030A8B42CD
:1001B00001D30B02C01A5241CDD2C3098B4201D3E5
:1001C000CB01C01A524183098B4201D38B01C01A63
:1001D000524143098B4201D34B01C01A52410309DA
:1001E0008B4201D30B01C01A5241C3088B4201D389
:1001F000CB00C01A524183088B4201D38B00C01A36
:10020000524143088B4201D34B00C01A5241411A5C
:1002100000D20146524110467047FFE701B5002069
:1002200000F0F0F802BDC0460029F7D076E770472D
:1002300003460B437FD4002243088B4274D3030947
:100240008B425FD3030A8B4244D3030B8B4228D3E8
:10025000030C8B420DD3FF22090212BA030C8B420E
:1002600002D31212090265D0030B8B4219D300E0AE
:10027000090AC30B8B4201D3CB03C01A5241830B33
:100280008B4201D38B03C01A5241430B8B4201D3E3
:100290004B03C01A5241030B8B4201D30B03C01A0C
:1002A0005241C30A8B4201D3CB02C01A5241830A86
:1002B0008B4201D38B02C01A5241430A8B4201D3B5
:1002C0004B02C01A5241030A8B4201D30B02C01ADF
:1002D0005241CDD2C3098B4201D3CB01C01A524146
:1002E00083098B4201D38B01C01A524143098B42CF
:1002F00001D34B01C01A524103098B4201D30B01B8
:10030000C01A5241C3088B4201D3CB00C01A5241DC
:1003100083088B4201D38B00C01A524143088B42A1
:1003200001D34B00C01A5241411A00D2014652413A
:10033000104670475DE0CA0F00D04942031000D359
:100340004042534000229C4603098B422DD3030AAE
:100350008B4212D3FC22890112BA030A8B420CD3BE
:10036000890192118B4208D3890192118B4204D3E7
:1003700089013AD0921100E08909C3098B4201D367
:10038000CB01C01A524183098B4201D38B01C01AA1
:10039000524143098B4201D34B01C01A5241030918
:1003A0008B4201D30B01C01A5241C3088B4201D3C7
:1003B000CB00C01A524183088B4201D38B00C01A74
:1003C0005241D9D243088B4201D34B00C01A52414B
:1003D000411A00D20146634652415B10104601D3D8
:1003E0004042002B00D54942704763465B1000D362
:1003F000404201B5002000F005F802BD0029F8D008
:1004000016E770477047C04670B50400154BC0181A
:1004100003F057F8002803D0134BE35C002B04D102
:100420008C23DB00E35E002B14D08C23DB00E15E29
:10043000002910D1D7239B00E518203BE1182800A4
:1004400002F0B2F9280000F071FA0023064AA35422
:10045000023AA35270BDD7239B00E01802F026FD9C
:10046000E8E7C046640400006204000010B5D6232B
:100470009B00C158002904D00548802205F0AEFD3C
:1004800010BD044B044A0548753106F0AFFCC04668
:10049000D8050020AC820008C8820008F482000859
:1004A00070B504000D00054BC01803F00AF80028D1
:1004B00002D08C23DB00E55270BDC0466C04000006
:1004C00010B50369032B0AD80A689B001A5001690A
:1004D0004B1C0361032907D88900401810BD04484C
:1004E0000422190006F068FC0148042206F064FCAE
:1004F00040830008F0B583B00500802292000021FF
:1005000006F0ADFF8027BF00EC191022002120006B
:1005100006F0A5FF0026266185239B00EC1810221B
:100520000021200006F09BFF266166612C00EE1979
:1005300007E0019480239B00E81801A9FFF7C0FFA2
:100540008034B442F5D1280003B0F0BD70B504008A
:10055000FFF7D0FF0025D6239B00E5500433E018B9
:1005600002F030FD8C23DB00E5520022074BE25401
:10057000FA21074BE018C90002F09BFF9621054BBA
:10058000E018490002F095FF200070BD62040000F1
:10059000640400006C04000070B582B006000C001A
:1005A0000D69AD004D1907E008CC019380239B0035
:1005B000F01801A9FFF784FFAC42F5D102B070BD7D
:1005C00010B501690139032902D88900401810BD0E
:1005D0000148042206F0F0FB4083000810B5030038
:1005E00001690139032903D88A001058196110BD27
:1005F0000148042206F0E0FB4083000870B5802328
:100600009B00C4182000FFF7DBFF05682000FFF700
:10061000E5FF280070BD000010B582B00400D623AD
:100620009B00C358002B01D002B010BD01A803F0FD
:1006300037FF80239B00E3181B69002B03D101A81F
:1006400003F034FFF0E72000FFF7D8FF0100D623C6
:100650009B00E0500248802205F0C0FCEFE7C04656
:10066000D805002010B54368994207D80268511890
:1006700003220A400260013B436010BD024B034A63
:100680000348342106F0B2FB74830008808300081D
:10069000CC83000810B54369002B04D01030012131
:1006A000FFF7E0FF10BD034B034A0448F52106F0B5
:1006B0009DFBC0461C84000828840008CC830008E9
:1006C000F0B583B006000D0014001022002106F0E2
:1006D000C6FE002333610FE089239B00EB5885227F
:1006E0009200A8189B00C458FFF7D4FF019401A9F9
:1006F0003000FFF7E5FE3C00671E002C05D0892383
:100700009B00EB185B68002BE6D1300003B0F0BD16
:10071000F0B5D6464F464646C0B592B0060089238E
:100720009B00C3185C681022002108A806F097FE01
:1007300000230C93002C07D10C9B9B0008AA914628
:100740009944904600243AE005A803F0A9FE8923C5
:100750009B00F3185A68002A03D105A803F0A6FEEF
:10076000EAE7022A00D9022231000DA8FFF7A8FF0C
:1007700008AA0DAB11001800B0C8B0C1006808602D
:1007800011990C9100221192E7E705AD0599CF234D
:100790009B00F01803F0FCFB6C46069A3B005146A8
:1007A000200003F01BFC07CC07C5174B0122F254B5
:1007B0000124079F002FE8D104239C46E044C8454C
:1007C0000CD043461A688B239B009A46B244AD3B3B
:1007D000FF3B514605A803F001FCEAE70C9B002B08
:1007E00006D1200012B0E0BCBA46B146A846F0BD22
:1007F00005A803F055FE08A93000FFF7CDFE05A8B7
:1008000003F054FEEDE7C0466204000010B54369F2
:10081000042B00D010BD034B034A04489D2106F071
:10082000E5FAC046C4840008D4840008CC830008DC
:1008300010B543680422D21A914202D85B18436073
:1008400010BD034B034A04482E2106F0CFFAC046E0
:10085000D4850008E4850008CC83000870B5040046
:100860000D00FFF7D3FF22696369D21803231340F9
:100870009B002A68E250200010300121FFF7D8FFCA
:1008800070BD000010B582B00400D6239B00C35891
:10089000002B12D0852292008018019301A9FFF746
:1008A000DDFF80239B00E3181B69002B0BD1D623AF
:1008B0009B000022E25002B010BD094B094A0A48D1
:1008C000682106F093FA2000FFF798FE0100D62376
:1008D0009B00E0500548802205F080FBEBE7C04616
:1008E000AC82000830860008F4820008D805002099
:1008F00010B54C23C15A042907D810304B005B189F
:100900009B00C01802F0B7FE10BD0248052206F099
:1009100053FAC0464083000810B504008368002BDA
:1009200002D0032201009847200010BD10B504003A
:10093000037F002B03D1637F002B06D110BD043051
:1009400002F099FE00232377F5E72000103002F033
:1009500092FE00236377F1E770B5060003F094FA86
:100960003400103404250AE00C220021200006F097
:1009700076FD646024600023A360013D0C34002DEB
:10098000F2DA034B33604C230022F252300070BD88
:100990006089000810B505290AD8012A0ED8490037
:1009A0008A189423C058D3009B18DB00C01810BDD0
:1009B000054B064A0648302106F018FA054B034A53
:1009C0000348312106F012FA60860008708600089C
:1009D000DC8600082087000870B514000D1A8842D4
:1009E00001D1601970BD2A000100200006F024FD2D
:1009F000F7E710B504000378002B08D04068002802
:100A000005D0042106F0AEF900232370636010BD09
:100A100010B504000378002B08D04068002805D0EA
:100A2000042106F09FF900232370636010BD10B508
:100A300004000378002B08D04068002805D0082166
:100A400006F090F900232370636010BD10B5040018
:100A50000378002B08D04068002805D0082106F054
:100A600081F900232370636010BD10B504001030BD
:100A7000FFF7DDFF20000830FFF7CAFF2000FFF777
:100A8000E5FF200010BD10B504000378002B08D04E
:100A90004068002805D0042106F064F90023237083
:100AA000636010BD10B5022909D8012A0DD849008C
:100AB0008A18406ED3009B18DB00C01810BD064B8F
:100AC000064A0748302106F091F9064B034A0448CC
:100AD000312106F08BF9C046608600082C8700089B
:100AE000DC8600082087000810B5032909D8012AF0
:100AF0000DD849008A18406FD3009B18DB00C0183E
:100B000010BD064B064A0748302106F06FF9064B28
:100B1000034A0448312106F069F9C046608600089E
:100B200098870008DC8600082087000810B50400BC
:100B30000378002B08D04068002805D0042106F077
:100B400011F900232370636010BD000070B504002C
:100B5000150003F099F9260010360C220021300010
:100B600006F07DFC666126610023A3612A68237775
:100B70002262054B2360200024306022002106F011
:100B80006EFC200070BDC0467889000870B5040076
:100B9000150003F079F9260010360C2200213000F0
:100BA00006F05DFC666126610023A3612A68237755
:100BB0002262054B2360200024303022002106F001
:100BC0004EFC200070BDC046A889000870B5040026
:100BD000150003F059F9260010360C2200213000D0
:100BE00006F03DFC666126610023A3612A68237735
:100BF0002262054B2360200024304022002106F0B1
:100C00002EFC200070BDC046D889000870B50500D4
:100C10000C0001230370082006F0A8F8030006CC9E
:100C200006C36860280070BD70B504000E00012383
:100C30000370082006F09AF805000822310006F03B
:100C4000E6FC6560200070BD70B504001E000B68F6
:100C50000025057043600572C56010301100FFF774
:100C6000D5FF200018303100FFF7DEFF2023E554C8
:100C700065620833E554E562200070BD70B504007C
:100C800015001E0003F000F9084B2361200014300A
:100C9000049B32002900FFF7D7FF054B2361054B6A
:100CA000236018332361200070BDC0464C890008C2
:100CB000D08A00082498000810B582B001920093F1
:100CC0008368002B05D0C4686B4601AAA04702B018
:100CD00010BD06F075F8F0B5C64600B505008846AB
:100CE00000240EE06608012727403A003100280062
:100CF000FFF750FE01003B0032004046FFF7DCFFEB
:100D000001342B0094335A689423EB58D21AD21032
:100D1000D3009B1A99015B18DB009B18D903CB1AEF
:100D2000DB009B189C42DDD380BCB846F0BDF0B51B
:100D3000C64600B50500884600240EE06608012777
:100D400027403A0031002800FFF7ACFE01003B00CD
:100D500032004046FFF7B0FF0134AA6E6B6ED21A24
:100D6000D210D3009B1A99015B18DB009B18D903A2
:100D7000CB1ADB009B189C42E0D380BCB846F0BD88
:100D8000F0B5C64600B50500884600240EE06608AA
:100D9000012727403A0031002800FFF7A5FE010097
:100DA0003B0032004046FFF787FF0134AA6F6B6FAC
:100DB000D21AD210D3009B1A99015B18DB009B1842
:100DC000D903CB1ADB009B189C42E0D380BCB84609
:100DD000F0BD70B514000D1A884201D1601970BDC4
:100DE0002A000100200006F027FBF7E710B50800F5
:100DF000110005F0B7FF10BD10B50400016882684E
:100E0000521A002901D0FFF7F1FF200010BD70B584
:100E100004000378002B0CD04568002D09D0280071
:100E2000FFF7EAFF0C21280005F09CFF0023237048
:100E3000636070BD10B504002830FFF724FE200069
:100E40002030FFF7E4FF20001830FFF7FFFD2000FF
:100E50001030FFF7ECFD20000830FFF7D9FD20002F
:100E6000FFF7C7FD200010BD30B583B004000B684C
:100E7000002B12D04A68002A0FD00568586802F08B
:100E80004EFF01900023EA5E01AB00215B5E9A42B7
:100E900005DB236800216A5E1A8003B030BD01AD16
:100EA000F7E730B583B06B4600225A8002330193D6
:100EB000C90044182500603504E0210001A8FFF7AF
:100EC000D3FF1034A542F8D86B4602330020185ED9
:100ED00003B030BD30B583B004000B68002B12D0D6
:100EE0004A68002A0FD00568586802F018FF019080
:100EF0000023EA5E01AB02215B5E9A4205DB2368B8
:100F000000216A5E1A8003B030BD6B469D1DF6E776
:100F100030B583B06B4600225A8002330193090139
:100F200044182500103504E0210001A8FFF7D2FF86
:100F30000834A542F8D86B4602330020185E03B08F
:100F400030BD30B505005400E418E40020580028F6
:100F500005D028194068002801D0002007E0520081
:100F6000D218D200A8180B002C335351416030BD69
:100F7000F0B583B0060017001D000422684606F095
:100F800046FB002408E021003000FFF7C1FF6B465C
:100F90005988091859800134A742F4DC002408E07C
:100FA00029003000FFF77DFF6B461A8812181A805F
:100FB0000134A542F4DC01AA009B019353881B0471
:100FC0001088184303B0F0BD30B583B0030004307F
:100FD0006C4606E01A880D88521B228002330231CB
:100FE00002349842F6D101AA009B019353881B0456
:100FF0001088184303B030BD70B582B002000430D1
:101000006C4604E0DBB223800232023102349042AB
:1010100008D00023D65E0023CD5E0123AE42F1DB73
:101020000023EFE701AA009B019353881B0410885B
:10103000184302B070BD022A0AD007D8002A03D094
:10104000012A03D1016001E0002303600020704702
:101050000B680360FAE710B5012A02D10160002095
:1010600010BDFFF7E8FFFAE730B583B004000B6866
:10107000002B12D04A68002A0FD00568586802F089
:101080004EFE01900023EA5E01AB00215B5E9A42B6
:1010900005DB236800216A5E1A8003B030BD01AD14
:1010A000F7E730B583B06B4600225A8002330193D4
:1010B000C90044182500303504E0210001A8FFF7DD
:1010C000D3FF1034A542F8D86B4602330020185ED7
:1010D00003B030BD30B583B004000B68002B12D0D4
:1010E0004A68002A0FD00568586802F018FE01907F
:1010F0000023EA5E01AB02215B5E9A4205DB2368B6
:1011000000216A5E1A8003B030BD6B469D1DF6E774
:1011100030B583B06B4600225A8002330193090137
:1011200044182500103504E0210001A8FFF7D2FF84
:101130000834A542F8D86B4602330020185E03B08D
:1011400030BD30B505005400E418E40020580028F4
:1011500005D028194068002801D0002007E052007F
:10116000D218D200A8180B002C335351416030BD67
:10117000F0B583B0060017001D000422684606F093
:1011800046FA002408E021003000FFF7C1FF6B465B
:101190005988091859800134A742F4DC002408E07A
:1011A00029003000FFF77DFF6B461A8812181A805D
:1011B0000134A542F4DC01AA009B019353881B046F
:1011C0001088184303B0F0BD022A0AD007D8002ABD
:1011D00003D0012A03D1016001E000230360002055
:1011E00070470B680360FAE710B5012A02D101606D
:1011F000002010BDFFF7E8FFFAE730B583B0040028
:101200000B68002B12D04A68002A0FD00568586876
:1012100002F085FD01900023EA5E01AB00215B5ED8
:101220009A4205DB236800216A5E1A8003B030BD54
:1012300001ADF7E730B583B06B4600225A80023328
:101240000193C90044182500403504E0210001A89D
:10125000FFF7D3FF1034A542F8D86B4602330020C5
:10126000185E03B030BD30B583B004000B68002BAE
:1012700012D04A68002A0FD00568586802F04FFD66
:1012800001900023EA5E01AB02215B5E9A4205DB1E
:10129000236800216A5E1A8003B030BD6B469D1D35
:1012A000F6E730B583B06B4600225A8002330193D3
:1012B000090144182500103504E0210001A8FFF7BA
:1012C000D2FF0834A542F8D86B4602330020185EDE
:1012D00003B030BD30B505005400E418E4002058D8
:1012E000002805D028194068002801D0002007E018
:1012F0005200D218D200A8180B002C335351416071
:1013000030BDF0B583B0060017001D00042268460A
:1013100006F07DF9002408E021003000FFF7C1FF4E
:101320006B465988091859800134A742F4DC00241F
:1013300008E029003000FFF77DFF6B461A8812187D
:101340001A800134A542F4DC01AA009B0193538862
:101350001B041088184303B0F0BD022A0AD007D836
:10136000002A03D0012A03D1016001E000230360B9
:10137000002070470B680360FAE710B5012A02D11C
:101380000160002010BDFFF7E8FFFAE770B5140018
:101390000D1A814201D1601970BD2A0001002000A0
:1013A00006F04AF8F7E710B5FFF7F0FF10BD10B5EB
:1013B000080053009A18910005F0D4FC10BD70B5D8
:1013C0000400016805E00D6801222000FFF7EFFF2F
:1013D00029008C42F7D170BD70B5060005000400ED
:1013E0003C3403E00C3C2000FFF7E9FFA542F9D1B3
:1013F000300070BD10B50400044B03601030FFF7DF
:10140000EBFF200002F048FD200010BD60890008BD
:1014100010B50400FFF7EEFF5021200005F0A2FCFC
:10142000200010BD10B50400064B03601C30FFF710
:101430007DFB20001030FFF7C2FF200002F02CFDE2
:10144000200010BD7889000810B50400FFF7EAFFFE
:101450008421200005F086FC200010BD10B504009A
:10146000064B03601C30FFF761FB20001030FFF7D4
:10147000A6FF200002F010FD200010BDA889000882
:1014800010B50400FFF7EAFF5421200005F06AFCC4
:10149000200010BD10B50400064B03601C30FFF7A0
:1014A00045FB20001030FFF78AFF200002F0F4FC1B
:1014B000200010BDD889000810B50400FFF7EAFF2E
:1014C0006421200005F04EFC200010BD70B5040022
:1014D0000E0001230370082005F048FC05000822D7
:1014E000310006F094F86560200070BD70B504000E
:1014F000096800250570416012680572C2600574B4
:10150000456118301900FFF7E1FF2023E5546562BB
:101510000833E554E562200070BD000070B504009A
:1015200015001E0002F0B0FC084B236120001430AF
:10153000049B32002900FFF7D9FF054B2361054BBF
:10154000236018332361200070BDC0464C89000819
:10155000D08A00082498000810B50300603000E02D
:101560000833984207D95C680A689442F8D100228F
:101570001A605A60F4E710BD10B50300303000E087
:101580000833984207D95C680A689442F8D100226F
:101590001A605A60F4E710BD10B50300403000E057
:1015A0000833984207D95C680A689442F8D100224F
:1015B0001A605A60F4E710BD10B50800D3009A18FD
:1015C000D10005F0CFFB10BD70B50500016884683F
:1015D000641AE410E3001B1B9A019B18DB001B1923
:1015E000DA03D21AD2001219002901D0FFF7E4FF62
:1015F000280070BD70B506000468456804E02368E3
:101600009B68200098474834A542F8D13000FFF786
:10161000DBFF300070BD000070B504000B4B0360B1
:10162000A0250B4B4351A430FFF71FFA094B635120
:1016300020009430FFF7DEFF20008430FFF706FA29
:101640002000FFF7EFFE200070BDC0469089000823
:10165000688A00084C89000810B50400FFF7DCFF19
:10166000BC21200005F07EFB200010BD10B5040059
:101670000A4B03600A4B03677430FFF7F6F9094B16
:10168000236720006430FFF7B5FF20005430FFF7D8
:10169000DDF92000FFF7E2FE200010BDC089000840
:1016A000688A00084C89000810B50400FFF7DEFFC7
:1016B0008C21200005F056FB200010BD70B5040001
:1016C0000B4B036080250B4B43518430FFF7CDF962
:1016D000094B635120007430FFF78CFF2000643009
:1016E000FFF7B4F92000FFF7D5FE200070BDC0461B
:1016F000F0890008688A00084C89000810B50400C9
:10170000FFF7DCFF9C21200005F02CFB200010BD22
:1017100010B5081E02DB05F029FB10BD05F043FBE8
:1017200070B504000D1E07D00022FFF7F1FF206006
:1017300060604019A06070BD0020F8E730B500E09F
:101740000068884203D085681468A542F8D130BD8E
:1017500010B50023FFF7F2FF10BD70B50C000B6849
:10176000002B0BD04B68002B08D00568286910357A
:101770000A1D2900FFF7ECFF854200D070BD002351
:1017800023606360FAE770B505000E000400603561
:1017900004E021003000FFF7E0FF0834A542F8D84C
:1017A00070BDF0B5CE4600B58AB004000D000192C0
:1017B0001F00036A002B00D184E00B6B002B00D1CB
:1017C00082E006002436089108A93000FFF7C4FE25
:1017D000109B002B21D121001031280002F06CFB5E
:1017E0003B00019A29003000FFF7ABFB002800D135
:1017F0006FE003685D68216A3BB26A460420125EAE
:101800003000FFF7B5FB079007A9280002F095FA12
:10181000109B002B14D1012057E0099409A9300036
:10182000FFF7B1FF39003000FFF73BFB814601991C
:101830003000FFF76DFB06AB4A461A805880CAE7B6
:10184000280002F06CFA059006AB00229B5E002B8C
:1018500003D105AB1A8806AB1A8006AB02229B5E49
:10186000002B03D105AB5A8806AB5A80109B022B84
:1018700004D0109B012B07D0012026E006A92800E8
:1018800002F020FA012020E005A906A8FFF79CFB42
:10189000039005A906A8FFF7AFFB049003A804A9CD
:1018A000030006E01A880C8862430280023302318A
:1018B000023004AA9342F5D103A9280002F018FAD5
:1018C000012002E0002000E000200AB080BCB94600
:1018D000F0BD0020F9E770B50C000B68002B0BD0B1
:1018E0004B68002B08D00568286910350A1D2900AF
:1018F000FFF72EFF854200D070BD00232360636098
:10190000FAE770B505000E000400303504E0210050
:101910003000FFF7E0FF0834A542F8D870BDF0B5FD
:10192000CE4600B58AB004000D0001921F00036A84
:10193000002B00D184E00B6B002B00D182E006006D
:101940002436089108A93000FFF716FE109B002BE3
:1019500021D121001031280002F0AEFA3B00019A9B
:1019600029003000FFF7EDFB002800D16FE003688D
:101970005D68216A3BB26A460420125E3000FFF7C0
:10198000F7FB079007A9280002F0D7F9109B002B5E
:1019900014D1012057E0099409A93000FFF7B1FFE5
:1019A00039003000FFF77DFB814601993000FFF7D9
:1019B000AFFB06AB4A461A805880CAE7280002F0FF
:1019C000AEF9059006AB00229B5E002B03D105AB60
:1019D0001A8806AB1A8006AB02229B5E002B03D14D
:1019E00005AB5A8806AB5A80109B022B04D0109B83
:1019F000012B07D0012026E006A9280002F062F999
:101A0000012020E005A906A8FFF7DEFA039005A94A
:101A100006A8FFF7F1FA049003A804A9030006E062
:101A20001A880C886243028002330231023004AA11
:101A30009342F5D103A9280002F05AF9012002E0EF
:101A4000002000E000200AB080BCB946F0BD0020B4
:101A5000F9E770B50C000B68002B0BD04B68002B1E
:101A600008D00568286910350A1D2900FFF770FEA7
:101A7000854200D070BD002323606360FAE770B533
:101A800005000E000400403504E021003000FFF79F
:101A9000E0FF0834A542F8D870BDF0B5CE4600B5D9
:101AA0008AB004000D0001921F00036A002B00D1D0
:101AB00084E00B6B002B00D182E0060024360891F5
:101AC00008A93000FFF768FD109B002B21D12100F1
:101AD0001031280002F0F0F93B00019A2900300093
:101AE000FFF7F8FB002800D16FE003685D68216A0A
:101AF0003BB26A460420125E3000FFF702FC0790FA
:101B000007A9280002F019F9109B002B14D101201D
:101B100057E0099409A93000FFF7B1FF3900300000
:101B2000FFF788FB814601993000FFF7BAFB06AB4F
:101B30004A461A805880CAE7280002F0F0F805905B
:101B400006AB00229B5E002B03D105AB1A8806ABC7
:101B50001A8006AB02229B5E002B03D105AB5A888C
:101B600006AB5A80109B022B04D0109B012B07D090
:101B7000012026E006A9280002F0A4F8012020E0B8
:101B800005A906A8FFF720FA039005A906A8FFF704
:101B900033FA049003A804A9030006E01A880C880D
:101BA0006243028002330231023004AA9342F5D12B
:101BB00003A9280002F09CF8012002E0002000E0C8
:101BC00000200AB080BCB946F0BD0020F9E770B52E
:101BD00014000D1A814201D1601970BD2A00010064
:101BE000200005F029FCF7E710B5FFF7F0FF10BD66
:101BF00010B5FFF7F9FF10BD70B504000D0049687E
:101C00002B68C91A0023036043608360FFF788FDD7
:101C1000286869682268FFF7EBFF6060200070BDEC
:101C200070B515001E0000290AD00022FFF770FDD4
:101C30000400220031002800FFF7DAFF200070BD09
:101C40000024F6E7F8B504000D00814210D0496881
:101C500028680E1AA7682268BF1AB7420AD36768B5
:101C6000BF1ABE4219D8FFF79EFB23689B19636019
:101C70002000F8BD0B00020031002000FFF7D0FF6C
:101C800005002168A268521A002902D02000FFF73F
:101C9000ADF82560AD19A560E7E7C119FFF799F820
:101CA000296860682368C31AC9186B685A1A8B427E
:101CB000DBD005F0C1FBD8E770B504000D0040682B
:101CC000002802D0FFF7BEFF70BD0C3005F04EF8C3
:101CD00006002900FFF790FF666001232370F3E7F9
:101CE00010B514000122FEF7DDFE34302100FFF7AD
:101CF000E3FF10BD70B504000D00002303704B68B6
:101D00004360002B02D00B78002B01D1200070BD66
:101D1000FFF77DF80023636069682000FFF7CCFFC0
:101D2000F4E7000010B5084B8B4205D3C8004018FB
:101D3000C00005F01BF810BD044B994201D905F015
:101D400035F805F030F8C046711CC701E3388E0342
:101D500070B504000D1E0AD00022FFF7E3FF2060DB
:101D60006060EB005B19DB00C318A36070BD00204E
:101D7000F5E770B504000D004368002B02D00A6837
:101D80001A6070BD042004F0F1FF2B6803606060EE
:101D900001232370F5E770B504000D0000230370E4
:101DA0004B684360002B02D00B78002B01D1200040
:101DB00070BDFEF71EFE0023636069682000FFF718
:101DC000D8FFF4E770B504000D004368002B02D083
:101DD0000A681A6070BD042004F0C8FF2B68036015
:101DE000606001232370F5E770B504000D00002347
:101DF00003704B684360002B02D00B78002B01D19D
:101E0000200070BDFEF704FE0023636069682000B7
:101E1000FFF7D8FFF4E770B505000C004368002B0E
:101E200002D003CC03C370BD082004F09FFF030061
:101E300006CC06C3686001232B70F4E770B504007C
:101E40000D00002303704B684360002B02D00B7819
:101E5000002B01D1200070BDFEF7E9FD0023636077
:101E600069682000FFF7D7FFF4E770B504000D00A4
:101E70004068002803D0082205F0C9FB70BD083077
:101E800004F074FF06000822290005F0C0FB66601C
:101E900001232370F2E770B504000D0000230370E6
:101EA0004B684360002B02D00B78002B01D120003F
:101EB00070BDFEF7CBFD0023636069682000FFF76B
:101EC000D4FFF4E770B504000D004368002B02D086
:101ED0000A681A6070BD042004F048FF2B68036094
:101EE000606001232370F5E770B504000D00002346
:101EF00003704B684360002B02D00B78002B01D19C
:101F0000200070BDFEF7BFFD0023636069682000FC
:101F1000FFF7D8FFF4E770B505000C00FFF73BFFB3
:101F20002100083128000830FFF75EFF2100103142
:101F300028001030FFF782FF2100183128001830E8
:101F4000FFF7A9FF2100203128002030FFF7D2FE43
:101F50002100283128002830FFF7C6FF280070BD77
:101F600070B504000D0001F0B5FF094B2361290095
:101F7000143120001430FFF7CEFF064B23616B6C49
:101F80006364054B236018332361200070BDC04695
:101F90004C890008D08A000824980008F8B507008A
:101FA0000C001600056805E031002800FFF7D8FF97
:101FB000013C4835002CF7D17D60F8BD70B50400B8
:101FC0000D001600094B99420CD8002303604360B2
:101FD0008360FFF7BDFE320029002000FFF7DEFF1F
:101FE000200070BD024804F0E4FEC046711CC70129
:101FF0000488000810B513780A1A884200D110BD71
:10200000190005F02CFAFAE710B5002905D00023D5
:102010000370431C012901D1180010BD44180200AF
:1020200021001800FFF7E6FF2000F6E770B5040076
:102030000D1E0CDB0023036043608360FFF770FB21
:1020400020682900FFF7E0FF6060200070BD0148B4
:1020500004F0AFFE04880008F0B5DE4657464E4651
:102060004546E0B585B002AF0600884691469A46DF
:10207000136852460021525E009242460021002021
:1020800005F02CF901003A1D3000FFF7CFFF4B4659
:102090001B6852460021525E0092424600210020F9
:1020A00005F01CF9050003000833DB08DB006A4675
:1020B000D31A9D4602AB9B4600235A461370093340
:1020C0006B44441E03E000221A70013C0133002CD3
:1020D000F9DA534600229B5E4A461268414658464A
:1020E00005F030F92900594432685846FEF774FC6F
:1020F0003000BD4603B0F0BCBB46B246A946A04680
:10210000F0BD000010B584B00400036801330393F0
:10211000074B084903AA6846FFF79EFF2000EC30F2
:102120006946FFF7C9FD6846FEF766FE04B010BDBC
:10213000448A000838880008F0B5DE4657464E4607
:102140004546E0B585B002AF05000E0090469946C1
:102150003B6B9B4613685A46126801924A461268C6
:1021600000920A000021002005F0B8F801003A1D95
:102170002800FFF75BFF43461B685A46126801922E
:102180004A461268009232000021002005F0A6F8AD
:10219000040003000833DB08DB006A46D31A9D46BF
:1021A00002AB9A4600235246137009226A44431E2A
:1021B00003E000211170013B0132002BF9DA4B469C
:1021C0001B68424612685946096800913100504622
:1021D00005F0B8F8210051442A685046FEF7FCFB90
:1021E0002800BD4603B0F0BCBB46B246A946A04697
:1021F000F0BDF0B5DE4657464E464546E0B585B0E3
:1022000002AF0600884691469A4613685246126805
:1022100000920A000021002005F060F801003A1D3C
:102220003000FFF703FF4B461B68524612680092CE
:1022300042460021002005F051F805000300083354
:10224000DB08DB006A46D31A9D4602AB9B4600239F
:102250005A46137009336B44441E03E000221A707F
:10226000013C0133002CF9DA53461B684A461268D8
:102270004146584605F066F82900594432685846E8
:10228000FEF7AAFB3000BD4603B0F0BCBB46B24629
:10229000A946A046F0BD000070B58CB004000D004A
:1022A00003929023C35C002B18D00022FEF772FB30
:1022B000060022008C3201350895124908AB0093C4
:1022C00003AB05A8FFF738FF3000343005A9FFF74E
:1022D000F3FC05A8FEF790FD0CB070BD0022FEF7E0
:1022E00059FB050022008C32074903AB09A8FFF710
:1022F00080FF2800343009A9FFF7DEFC09A8FEF7AB
:102300007BFDE9E7488800085088000870B58CB06C
:1023100004000D0003926023C35C002B18D0002240
:10232000FEF7C0FB060022005C3201350895124919
:1023300008AB009303AB05A8FFF7FEFE3000343076
:1023400005A9FFF7B9FC05A8FEF756FD0CB070BD56
:102350000022FEF7A7FB050022005C32074903AB11
:1023600009A8FFF746FF2800343009A9FFF7A4FCAD
:1023700009A8FEF741FDE9E74888000850880008F1
:10238000F0B5C64600B506000D009046002402E0F8
:102390002F0006E00134022C13D8002DF8D0A30042
:1023A000EF58620012199200424421003000FFF7FA
:1023B00097FC002FEED03A0021003000FFF7A6FF77
:1023C000E8E780BCB846F0BD70B58CB004000D00E5
:1023D00003927023C35C002B18D00022FEF784FB0D
:1023E000060022006C3201350895124908AB0093B3
:1023F00003AB05A8FFF7A0FE3000343005A9FFF7B6
:102400005BFC05A8FEF7F8FC0CB070BD0022FEF7DF
:102410006BFB050022006C32074903AB09A8FFF7EC
:10242000E8FE2800343009A9FFF746FC09A8FEF7AA
:10243000E3FCE9E74888000850880008F0B5D64674
:102440004F464646C0B582B000AF0600884691466A
:1024500013680A000021002004F040FF01003A1D2B
:102460003000FFF7E3FD4B461B6842460021002089
:1024700004F034FF050003000833DB08DB006A4684
:10248000D31A9D46EA46002352461370541C431E3D
:1024900003E000222270013B0134002BF9DA4B46A5
:1024A0001A684146504604F04DFF290051443268F5
:1024B0005046FEF791FA3000BD4602B0E0BCBA4685
:1024C000B146A846F0BD000010B586B001920122C9
:1024D000FEF760FA0400074901AA03A8FFF7AEFF60
:1024E0002000343003A9FFF7E7FB03A8FEF784FCC4
:1024F00006B010BD58880008F0B5DE4657464E4677
:102500004546E0B585B002AF0600884691469A463A
:1025100013685246126800920A000021002004F05D
:10252000DDFE01003A1D3000FFF780FD4B461B68C1
:1025300052461268009242460021002004F0CEFE6E
:10254000050003000833DB08DB006A46D31A9D460A
:1025500002AB9B4600235A46137009336B44441E5A
:1025600003E000221A70013C0133002CF9DA5346D3
:102570001B684A4612684146584604F0E3FE2900AB
:10258000594432685846FEF727FA3000BD4603B07A
:10259000F0BCBB46B246A946A046F0BDF0B5D64653
:1025A0004F464646C0B582B000AF06008846914609
:1025B00013780A000021002004F090FE01003A1D6B
:1025C0003000FFF733FD4B461B78424600210020C8
:1025D00004F084FE050003000833DB08DB006A46D4
:1025E000D31A9D46EA46002352461370541C431EDC
:1025F00003E000222270013B0134002BF9DA4B4644
:102600001A784146504604F09DFE29005144326834
:102610005046FEF7E1F93000BD4602B0E0BCBA46D4
:10262000B146A846F0BD000030B587B06B46DD1D51
:10263000DA710122FEF758FA040007492A0003A8BC
:10264000FFF7ACFF2000343003A9FFF735FB03A8E8
:10265000FEF7D2FB07B030BD58880008F0B5C6467B
:1026600000B507000D009046002402E02E0006E0B1
:102670000134032C11D8002DF8D0A300EE584346A6
:102680001A5D21003800FFF7CFFF002EF0D0320096
:1026900021003800FFF798FEEAE780BCB846F0BD9D
:1026A000F0B5D6464F464646C0B582B000AF0600EC
:1026B0008846914613880A000021002004F00EFE8F
:1026C00001003A1D3000FFF7B1FC4B461B88424623
:1026D0000021002004F002FE050003000833DB089F
:1026E000DB006A46D31A9D46EA4600235246137021
:1026F000541C431E03E000222270013B0134002BD6
:10270000F9DA4B461A884146504604F01BFE290070
:10271000514432685046FEF75FF93000BD4602B0C2
:10272000E0BCBA46B146A846F0BD000030B587B05F
:102730006B469D1DDA800122FEF7D6F90400074999
:102740002A0003A8FFF7ACFF2000343003A9FFF7ED
:10275000B3FA03A8FEF750FB07B030BD5888000855
:10276000F0B5C64600B507000D009046002402E013
:102770002E0006E00134032C12D8002DF8D0A3005F
:10278000EE58630042469A5A21003800FFF7CEFF08
:10279000002EEFD0320021003800FFF715FEE9E7E8
:1027A00080BCB846F0BD0000F0B5D6464F46464660
:1027B000C0B592B004000E000568042D00D9A5E054
:1027C000AB00554AD3589F46080001F0DFFB824614
:1027D0002F0012E0B4239946E058504BBA009046BF
:1027E000D2583900FFF758FD4B46E0585346424651
:1027F000D2583900FFF768FE0137022FEADD3100B9
:1028000003A801F0B9FB11E0B4239846E058EE1C90
:10281000434BAF00FA583100FFF73EFD4346E05806
:1028200003ABFA583100FFF74FFE0135022DEBDD07
:102830000123637712B0E0BCBA46B146A846F0BDAA
:10284000684601F099FB009D0A212800FDF766FC0F
:102850000C900A212800FDF7E7FC0D91314D0DABDE
:102860000CAA290003A8FFF747FE019E0A213000A9
:10287000FDF754FC0E900A213000FDF7D5FC0F91B6
:102880000FAB0EAA290006A8FFF736FE029E0A210A
:102890003000FDF743FC10900A213000FDF7C4FC26
:1028A000119111AB10AA290009A8FFF725FEB42346
:1028B000E0581D4903AAFFF763FD0CAD03AB9D4231
:1028C000B6D00C3D2800FEF797FAF7E7080001F0B4
:1028D00031FB0390B423E05803AA0021FFF7BEFEAA
:1028E000A6E7080001F004FB0390B423E05803AA14
:1028F0000021FFF7B3FE9BE7080001F06CFB02002C
:10290000B423E0580021FFF72BFF91E7074B084A5B
:102910000848642104F06AFAE48800082C8A000858
:10292000208A000860880008040000206C880008E5
:1029300074880008A0880008F0B5CE46474680B5E8
:1029400083B000AF060089460A000021002004F091
:10295000C5FC01003A1D3000FFF768FB4A46002124
:10296000002004F0BBFC050003000833DB08DB009B
:102970006A46D31A9D46E846002342461370013248
:10298000431E03E000241470013B0132002BF9DAEE
:102990004946404604F0D6FC29004144326840468E
:1029A000FEF71AF83000BD4603B0C0BCB946B046C9
:1029B000F0BD30B585B015000122FDF7EBFF040036
:1029C000290001A8FFF7B8FF2000343001A9FFF764
:1029D00073F901A8FEF710FA05B030BDF0B583B069
:1029E00005000E0014001F000068094A2100FFF7CF
:1029F00053FC2868074A2100FFF7DBFF2868012302
:102A000000933B0022003100FEF7CBFE03B0F0BD87
:102A10009C990008F888000810B51B681268FFF739
:102A2000DDFF10BD30B585B015000122FEF73AF884
:102A30000400290001A8FFF77FFF2000343001A91E
:102A4000FFF73AF901A8FEF7D7F905B030BD00004D
:102A5000F0B583B005000E0014001F000068094A9D
:102A60002100FFF753FC2868074A2100FFF7DAFF2F
:102A70002868012300933B0022003100FEF74FFF3E
:102A800003B0F0BD9C990008F888000810B51B68D9
:102A90001268FFF7DDFF10BD30B585B015000122CB
:102AA000FEF722F80400290001A8FFF745FF2000E7
:102AB000343001A9FFF700F901A8FEF79DF905B030
:102AC00030BD0000F0B583B005000E0014001F00FB
:102AD0000068094A2100FFF777FC2868074A2100AF
:102AE000FFF7DAFF2868012300933B002200310042
:102AF000FEF7D3FF03B0F0BD9C990008F8880008EA
:102B000010B51B681268FFF7DDFF10BD10B504009B
:102B1000074B036018330361064B03611430FEF763
:102B200089F9054B2361200001F0B6F9200010BDA2
:102B300024980008D08A00084C89000808B4024B89
:102B40009C46103808BC60470D2B0008F0B59BB0C0
:102B5000040017001E00209AFDF7F8FF00258423CB
:102B6000E554230084335D60244B23608C23E750BD
:102B70000433E65421001031249B0093239B229AB6
:102B800003A8FEF7CBFC2000943015AB03AA0C2160
:102B9000FFF714FA03A8FFF7B9FFA023184AE25081
:102BA000A422A5542200A4325560AC22A5542200D0
:102BB000AC325560219A1168B422A5542200B43277
:102BC0005160104AE2500C22002116A804F047FC84
:102BD0000822002116A804F042FC199516940A4B0D
:102BE00019930A4B189316A92000FEF774F816A83B
:102BF000FDF792FE20001BB0F0BDC0469089000892
:102C00004C890008688A0008192A00085710000833
:102C1000F0B5C64600B58AB004000E00170098460D
:102C2000BC2004F0A3F80500210010312300B033CC
:102C30000693903B07930E4B08932300A43309930C
:102C4000A834049409AB039308AB029307AB019338
:102C500006AB009343463A00FFF778FF35602B68D8
:102C60005B680121280098470AB080BCB846F0BDD7
:102C700010000020F0B59BB0040017001E00209A41
:102C8000FDF784FF00255423E554A565214B2360FF
:102C9000E7656023E65421001031249B0093239BB9
:102CA000229A03A8FEF73AFC2000643015AB03AA71
:102CB0000621FFF783F903A8FFF728FF164B2367C8
:102CC0007423E554A5670833E5540433E550219B8C
:102CD0001A688423E554230084335A600F4B23671A
:102CE0000C22002116A804F0BAFB0822002116A825
:102CF00004F0B5FB19951694094B1993094B1893D9
:102D000016A92000FEF713F816A8FDF705FE20000F
:102D10001BB0F0BDC08900084C890008688A000813
:102D20008D2A0008E9110008F0B5C64600B58AB042
:102D300004000E00170098468C2004F017F80500D8
:102D4000210010312300B0330693903B07930E4BC4
:102D500008932300A4330993A834049409AB039384
:102D600008AB029307AB019306AB009343463A00CE
:102D7000FFF780FF35602B685B68012128009847CA
:102D80000AB080BCB846F0BD10000020F0B59BB082
:102D9000040017001E00209AFDF718FF0025642389
:102DA000E554A566234B2360E7667023E6542100B3
:102DB0001031249B0093239B229A03A8FEF7AEFBBD
:102DC0002000743015AB03AA0821FFF7F7F803A819
:102DD000FFF79CFE8023184AE2508422A55422006B
:102DE000843255608C22A55422008C325560219A81
:102DF00011689422A5542200943251600F4AE25087
:102E00000C22002116A804F02AFB0822002116A893
:102E100004F025FB19951694094B1993094B189347
:102E200016A92000FDF7ACFF16A8FDF775FD2000E0
:102E30001BB0F0BDF08900084C890008688A0008C2
:102E4000012B00087B130008F0B5C64600B58AB018
:102E500004000E00170098469C2003F087FF050031
:102E6000210010312300B0330693903B07930E4BA3
:102E700008932300A4330993A834049409AB039363
:102E800008AB029307AB019306AB009343463A00AD
:102E9000FFF77CFF35602B685B68012128009847AD
:102EA0000AB080BCB846F0BD1000002070B5040028
:102EB0000D000368012B2CD01DDC002B34D1B42372
:102EC000C058002805D00368DB689847B423002267
:102ED000E25005212800FDF791FA09B24A42002389
:102EE000E05E824226DD05312160042954D8890044
:102EF0002C4B5B589F46023B022B15D8B423C0587D
:102F00000028E6D00368DB689847B4230022E2502B
:102F1000DFE7B423C0580028DBD00368DB6898479C
:102F2000B4230022E250D4E71F4B204A20487F21DF
:102F300003F05CFF08180521FDF760FAD4E71D4A8D
:102F40002100B43100232000FFF762FE2000FFF7CC
:102F5000D9F80123237770BD164A2100B43100232C
:102F60002000FFF7E1FEF1E7134A2100B43101230D
:102F70002000FFF769FFE9E7104A2100B43101237F
:102F80002000FFF761FFE1E70D4A2100B431012382
:102F90002000FFF759FFD9E7034B044A0448A22158
:102FA00003F024FF308900086C880008FC880008C2
:102FB000A08800089C9900081C8900082489000842
:102FC00028890008F0B589B004000027060080C6F3
:102FD00086604660C7600300103343610361876108
:102FE00007774777FF22FF21FF2003F041FE206291
:102FF000FF22FF21FF2003F03BFE6062220020320F
:1030000020002830310000F0F1FE20005430310063
:10301000FDF7A2FC00220021002003F029FEA423DA
:10302000E0501A4D2300A8332A0003CA03C3AA683C
:10303000B023E2500433E750154B0393FF22FF21E6
:10304000FF2003F015FE049000220021002003F071
:103050000FFE059006AB0C351A0003CD03C2250008
:10306000B835009304AB03AA31002800FDF706FE33
:1030700000212000FFF71AFF0221280000F0DFFEE8
:103080002000FFF73FF8200009B0F0BD948200084F
:103090001000002010B50400FFF738FD4821200083
:1030A00003F060FE200010BD08B4024B9C461038AF
:1030B00008BC60479530000810B582B00400016A72
:1030C0000422684604F0A3FA636F892292009446B2
:1030D000634459680431042201A804F098FA2000DE
:1030E00084306946FEF7C1FE02B010BD10B582B053
:1030F0000400016A0422684604F089FA636E95337D
:10310000FF3359680431042201A804F080FA20003A
:1031100074306946FEF7A9FE02B010BD10B582B04A
:103120000400016A0422684604F071FA9423E3580B
:10313000D12292009446634459680431042201A8C4
:1031400004F065FA2000A4306946FEF78EFE02B056
:1031500010BDF0B5C64600B582B004000D000023D6
:103160009846002722E00136012E19D87B009B19D2
:10317000DB001A59002AF6D07B009B19DB00E3180C
:103180005B68002BEFD06B8843449BB25068428849
:103190009B1A002269460A804B8000F06FFDE2E72F
:1031A00039002000FEF77DF880440137032F01D855
:1031B0000026D9E700239846002723E00136032E96
:1031C0001AD87300DB19DB001A59002AF6D07300F5
:1031D000DB19DB00E3185B68002BEFD02B8843443E
:1031E0009BB2506802889B1A6A4693800023D38062
:1031F00001A900F043FDE1E739002000FEF71AF8CD
:1032000080440137012F01D80026D8E702B080BCE6
:10321000B846F0BD30B583B00400050024350190F8
:1032200001A92800FEF72BFC216A2800FFF791FF77
:103230002000103000F01FFA03B030BD30B583B06D
:10324000040005002435019001A92800FEF717FCB1
:10325000216A2800FFF77DFF2000FFF72DFF2000E7
:10326000803000F0E5FA2000103000F004FA03B0DE
:1032700030BDF0B5C64600B582B004000D00002395
:103280009846002722E00136012E19D87B009B19B1
:10329000DB001A59002AF6D07B009B19DB00E318EB
:1032A0005B68002BEFD06B8843449BB25068428828
:1032B0009B1A002269460A804B8000F0DFFCE2E79F
:1032C00039002000FDF724FF80440137022F01D888
:1032D0000026D9E700239846002723E00136022E76
:1032E0001AD87300DB19DB001A59002AF6D07300D4
:1032F000DB19DB00E3185B68002BEFD02B8843441D
:103300009BB2506802889B1A6A4693800023D38040
:1033100001A900F0B3FCE1E739002000FDF7C1FE90
:1033200080440137012F01D80026D8E702B080BCC5
:10333000B846F0BD30B583B00400050024350190D7
:1033400001A92800FEF7DDFA216A2800FFF791FFA6
:103350002000103000F08FF903B030BD30B583B0DD
:10336000040005002435019001A92800FEF7C9FAE0
:10337000216A2800FFF77DFF2000FFF7B7FE20003D
:10338000703000F055FA2000103000F074F903B0EE
:1033900030BDF0B5C64600B582B004000D00002374
:1033A0009846002722E00136012E19D87B009B1990
:1033B000DB001A59002AF6D07B009B19DB00E318CA
:1033C0005B68002BEFD06B8843449BB25068428807
:1033D0009B1A002269460A804B8000F04FFCE2E70E
:1033E00039002000FDF794FD80440137052F01D8F6
:1033F0000026D9E700239846002723E00136052E52
:103400001AD87300DB19DB001A59002AF6D07300B2
:10341000DB19DB00E3185B68002BEFD02B884344FB
:103420009BB2506802889B1A6A4693800023D3801F
:1034300001A900F023FCE1E739002000FDF731FD90
:1034400080440137012F01D80026D8E702B080BCA4
:10345000B846F0BD30B583B00400050024350190B6
:1034600001A92800FEF78FF9216A2800FFF791FFD4
:103470002000103000F0FFF803B030BD30B583B04D
:10348000040005002435019001A92800FEF77BF90E
:10349000216A2800FFF77DFF2000FFF73FFE200094
:1034A000A03000F0C5F92000103000F0E4F803B0BF
:1034B00030BD10B50400016001F0BAF86060200072
:1034C00010BD10B5040001F0B3F802006368C31A20
:1034D00021689942804140428B4200D9626010BD10
:1034E00010B5012800D010BD064B9942FBD1064C07
:1034F0002000FDF72BF8054A0549200003F02BFCBE
:10350000F1E7C046FFFF0000A400002000000020FB
:103510002536000810B5054C2000FDF7F9F820000D
:10352000FCF772FF2000FDF777F8F4E7A400002015
:1035300010B50248FCF79AFF10BDC046A400002059
:1035400010B50348FDF79EF900F0C0FE10BDC0465F
:10355000A400002010B50D4B5B69DB0704D40B4BB6
:103560005B699B0709D410BD012109484942FCF75A
:1035700097FF012001F0C8FAF5E705480121FCF7A3
:103580008FFF022001F0C0FAEDE7C04600040140C1
:10359000A400002010B50400074B0360183303613A
:1035A000064B03611430FDF760FA054B23612000E0
:1035B00000F072FC200010BDF8970008688A00082F
:1035C0004C89000808B4024B9C46103808BC604780
:1035D0009535000810B50400FFF7DCFF2C21200012
:1035E00003F0C0FB200010BD08B4024B9C4610380D
:1035F00008BC6047D535000810B50400B830FFF7A7
:1036000085FA20005430FDF7F5FE20002830FFF742
:10361000C1FF20001030FDF7D2FE201DFDF7CFFEC8
:10362000200010BD10B50400D7239B00C018FFF781
:10363000E3FF200010BD000010B502490120FFF794
:103640004FFF10BDFFFF000001717047014B036089
:1036500001717047508A00080079704770B5080002
:103660001500FFF7F9FF04002800FFF7F5FF84427B
:103670008041404270BD70B50500046804E0A06858
:1036800003681B6898472468A542F8D170BD0029DB
:1036900004DC0BE002681268026019004B1E00296E
:1036A000F8D1704702685268026019004B1C00296B
:1036B000F8D1F6E70300002001E01B6801308B42DF
:1036C000FBD1704710B50022FFF7F4FF10BDF0B535
:1036D00085B00600170001AA1370FFF7F3FF05007D
:1036E00000E02500002D13DD6C1003960022210060
:1036F00003A8FFF7CCFF039B3A68996801A8FFF77E
:10370000ADFF0028EDD0039E36682C1B013CE8E796
:10371000300005B0F0BD10B504004168002903D0A9
:1037200000680122FDF743FE200010BD70B50400C3
:103730000D008368013B8360080003F02FFB01222A
:1037400029002000FDF733FE70BD10B50C68FFF7AF
:10375000EDFF200010BD10B5FFF7F7FF10BD000012
:1037600010B5084B8B4205D348004018800003F089
:10377000FDFA10BD044B994201D903F017FB03F089
:1037800012FBC046AAAAAA0A5555551570B582B0B3
:1037900005000E0000220121FFF7E2FF0400009562
:1037A000019033688360002301936846FFF7B3FFFD
:1037B000200002B070BD70B504000E001100FFF7CC
:1037C000E5FF0500310003F0E3FAA3680133A360CD
:1037D000280070BD30B583B004000D000068009172
:1037E00000236A462100FFF772FF0100019501AA3C
:1037F0002000FFF7E0FF03B030BD70B505000C00FE
:1038000009688E68FFF7A7FF31002800FFF7E2FF85
:10381000206070BD10B513000A1A511006D01900AF
:1038200003F0FCFD43425841C0B210BD0120FCE74B
:10383000F0B583B005008468002C17D00369002B15
:1038400016D0200000F0DCF9201D00F0D9F92E6917
:10385000002E11D00622A35E0421625E0220215EAA
:103860000020205E3468009403F0F6F803B0F0BD49
:103870008369002BE5D1F9E7201D21000831214A99
:10388000FFF7C8FF002806D0211D1F4A2000FFF7C0
:10389000C1FF00281AD1AE690622A35E0421625E30
:1038A0000220215E0027E05F7668009603F01EF993
:1038B000AD690622A35E0421625E0220215E002023
:1038C000205E2C68009403F0C7F8CFE70F4B1B680D
:1038D000DB0708D5AB6958680D4B1B6898420DD0C3
:1038E00003F0CAF9E4E7FF22FF21FF2003F0C0F94B
:1038F000074B1860054B01221A60EBE703F0B4F99F
:10390000D6E7C046748A0008788A000818050020A7
:103910001C05002010B50400034B08C0FDF7A5F8F6
:10392000024B2360200010BD688A00084C89000803
:1039300010B50400054B08C0FDF797F8044B236051
:103940001C21200003F00EFA200010BD688A000838
:103950004C89000810B50400080000F069F96063A4
:1039600010BD0000F0B5C64600B504000D0008000B
:1039700000F030F9002802D100232B806B802B1D32
:103980009846180000F026F9002804D11A4940464C
:10399000042203F03CFE236B1B68002B0ED12B008E
:1039A0002E1D20003430290006E01A8807887A434B
:1039B0000A800233023002319E42F6D1236B1B682B
:1039C000002B0FD12B1D2F00083720003430190099
:1039D00006E01A88048862430A800233023002310A
:1039E0009F42F6D1280000F00BF9404600F008F99C
:1039F00080BCB846F0BDC046748A000882B00200A0
:103A0000416A0B00581E8341D8B200290BD053687D
:103A1000002B0AD001AB01211970D369002B09D00A
:103A2000012001AB587002B0704701AB00221A7040
:103A30000020F6E70020F4E710B542680368D21AC8
:103A4000914200D210BD014803F0B6F97C8A00080B
:103A5000F0B5DE4657464E464546E0B589B004000F
:103A60000430FFF7CBFF00282FD02369002B29D08B
:103A7000236B002B30D0A1682000FFF76BFF216A79
:103A80002000FFF76FFF206A00F049F9069006ABAF
:103A900000229A5E3421635E9A4216DB06AB022254
:103AA0009A5E3621635E9A420FDB236A994605AD22
:103AB00004221900280003F0AAFD0022AB5E039344
:103AC00000252EE0A369002BD2D109B0F0BCBB4683
:103AD000B246A946A046F0BD0133079320002C3022
:103AE00007A9FEF7EFF9C6E75146FFF7A5FF4346E2
:103AF0005246985C2369A2681B68126800923200E3
:103B0000390003F027F80135ADB200210023F31886
:103B100005AA538000293AD1A38EDB191BB205AA4E
:103B2000138005AB02269E5F4B4606229B5E9E429B
:103B3000CBDAA06A4368026890469B1AAA469D4267
:103B4000C3D205AB0027DF5F3422A35EDB194A46F0
:103B50000421525E934216DCA3699B46002BC3D01E
:103B60005146FFF769FF43465246985CA2685B46A0
:103B70001B68126801925A4652680092320039005E
:103B800003F027F8BFE73622A35E0121BFE7039BBE
:103B9000C5E7000010B50400034B08C0FDF74AF963
:103BA000024B2360200010BDD08A00084C89000819
:103BB00010B50400054B08C0FDF73CF9044B236029
:103BC0003821200003F0CEF8200010BDD08A000874
:103BD0004C8900080022835E002B09DB0221425E33
:103BE000002A07DB7F2B07DC9F2A07DC012000E08F
:103BF000002070470020FCE70020FAE70020F8E7EB
:103C000010B582B004000949042201A803F0FFFCAA
:103C10000022A35E7F2B01DD7F2323800222A35E8F
:103C20009F2B01DD9F23638002B010BD748A0008C2
:103C300000B585B00168002910D0684602F0D9FDB2
:103C40006B465A7A03AB1A806A46927A5A8003AA64
:103C500053881B041088184305B000BD014B1B6836
:103C60000393F4E7A882000810B50400FFF7B2FF41
:103C7000002802D0201DFFF7ADFF10BDF8B50600EB
:103C80000C00FFF7F1FF00281BD03300371D250083
:103C90003000210006E01A880C88121902800233D5
:103CA000023102309F42F6D1331D0836190006E07A
:103CB0001A88288812180A800233023502319E427F
:103CC000F6D1F8BD70B505000C00FFF7CDFF002858
:103CD0000DD02B00281D2100040006E01A880D8855
:103CE000521922800233023102349842F6D170BD5B
:103CF00070B505000C00FFF7B7FF00280ED02B1D94
:103D00002800083021001C0006E01A880D8852198E
:103D100022800233023102349842F6D170BD00B5E0
:103D200083B001000430FDF74FF901AA01905388D8
:103D30001B041088184303B000BD30B583B00400E5
:103D40000D00FFF791FF002801D103B030BD210025
:103D50002800FDF739F9019004222900200003F022
:103D600056FC231D200008301C0001A906E01A881B
:103D70000D88521922800233023102349842F6D162
:103D8000E3E710B5030010301B691B68984710BDAE
:103D900010B50A4B1B68DB070DD4094C09490422F6
:103DA000200003F034FC0849201D042203F02FFCFE
:103DB000024B01221A60024810BDC04620050020B7
:103DC00024050020788A0008748A000870B5040071
:103DD0000E0001230370082002F0C8FF050008222E
:103DE000310003F014FC6560200070BD70B5040064
:103DF000150000F049F8FFF7CBFF0100094B2361E4
:103E000020001430FFF7E2FF0023237723622422EF
:103E1000A354A562044B2361044B23601833236130
:103E2000200070BD4C890008688A0008F8970008D7
:103E300010B5030010301B691B68984710BD70B5A2
:103E400004000D00FFF708FCA84200D170BD290056
:103E50002000FFF7F9FBA06821000C31FFF7CDFC33
:103E6000F4E7000070B504000D001100FFF7EEFB51
:103E7000044B2360A56021002800FFF7ABFCE06045
:103E8000200070BD5098000810B504000022FFF714
:103E9000E9FF200010BD000010B50400044B0360D2
:103EA0008068E168FFF757FC024B2360200010BDDB
:103EB00050980008508A000870B504000D00806812
:103EC000E168FFF748FCA56021002800FFF782FCAD
:103ED000E06070BD70B5040008008D68FFF7BCFBA2
:103EE000020029002000FFF7BDFF200070BD000088
:103EF00082B0002306E0817C194101220A40694614
:103F0000CA540133032BF6D901AB009A01925A78B7
:103F10001202187810439A78120405490840104399
:103F2000DB781B060002000A184302B07047C04647
:103F3000FFFF00FF82B0002306E0018A1941012241
:103F40000A406946CA540133032BF6D901AB009AE3
:103F500001925A781202187810439A78120405498F
:103F600008401043DB781B060002000A184302B029
:103F70007047C046FFFF00FF0B685A05520D0260F4
:103F8000DA02920D42605B0D836070470430704727
:103F900030B5CB78032B16D0332B17D0022B00D0A3
:103FA00030BD4B68020008C20C0008340B0014330B
:103FB0001B1B9B1002E020CC20C2013B002BFADC33
:103FC0000B7F8374ECE78B880382E9E714300431BC
:103FD0000CC90CC0E4E7143070470000F0B5CE46C1
:103FE000474680B583B081460E0090461F000024EE
:103FF00000E00134BC4259D23568002D06D1434659
:104000001B5DFE2BF5D101353560F2E7012D18D08F
:1040100073689D4221DA5B1B00933A1B0192934225
:1040200019DC6B461D6830000830336842461119B0
:10403000C0182A0003F0EBFA33685B193360641987
:10404000D8E743461B5D7219137201340433736061
:1040500001353560CEE701ABE4E700223260A446CB
:10406000C4444246105D32000932013B002105E0A4
:1040700013784B401349C95C01322B005D1E002BA5
:10408000F6D1884201D00134B4E733000833F27A24
:10409000182A07D04A4613604B4662465A603F1BB7
:1040A0009F6008E0F4320021B154F3E700234A4650
:1040B000136053609360484603B0C0BCB946B04635
:1040C000F0BDC0466098000800B583B0094A516948
:1040D000012319435161526913400193019B00224E
:1040E00000210B2000F008FB0B2000F009FB03B0BF
:1040F00000BDC04600100240F0B589B01422002176
:1041000003A803F0ACF92B4B5A698021C9030A4379
:104110005A615A690A400092009A5A6980218902BC
:104120000A435A615A690A400192019A5A698021E8
:10413000C9020A435A615B690B400293029B032444
:104140000394049403A91C4800F012FC9F231B0253
:1041500003930494002505959027FF0503A93800D3
:1041600000F006FC80235B000393EF3B049305956E
:10417000124E03A9300000F0FBFB039488235B037D
:1041800004930223059303A9380000F0F1FBFF23F9
:1041900003930494059503A9300000F0E9FB002285
:1041A0000321052000F0A8FA052000F0A9FA09B0C3
:1041B000F0BDC04600100240001400480004004852
:1041C00010B500F03BFA10BD10B50A0040B201284E
:1041D0000AD002280ED0002800D010BD9030102147
:1041E000C00500F089FCF8E790204021C00500F0F0
:1041F00083FCF2E790200249C00500F07DFCECE76B
:10420000FFFF000070B505000C009026F6050022A7
:104210001021300000F070FC0123A2B205485B427F
:10422000290001F061F901221021300000F064FC46
:1042300070BDC0463005002010B586B014220021A4
:1042400001A803F00CF9402301933F3B0293039331
:104250009024E40501A9200000F08AFB10230193BB
:1042600001A9200000F084FB06B010BD00B583B0AA
:10427000154B1B68002B01D003B000BD0233019326
:10428000013B009300230022A021802001F0E0FEEA
:104290000D4B186001F002FF01F042FF002001F019
:1042A00059FF002001F0D4FF062002F00DF8042091
:1042B00001F080FF002001F06EFFFF2001F0A1FF60
:1042C000012001F059FFD7E72C05002010B5064B5F
:1042D0001A7851424A41D2B21A70802149000348EB
:1042E00000F00AFC10BDC046140000200004004885
:1042F00072B6FEE700B591B03022002104A803F0A9
:10430000AEF810220021684603F0A9F802230493B6
:10431000012207920F3208920C93E0235B030E9365
:1043200004A800F0FFFB00280ED107230093053BF3
:1043300001930023029303930121684600F078FE65
:10434000002803D111B000BDFFF7D2FFFFF7D0FF67
:1043500010B500F051F9FFF7CDFFFFF7CDFEFFF7E5
:10436000B3FE00F0ABF800F009F8FFF765FFFFF7C8
:104370007DFFFFF7CFF8002010BD000010B51148F9
:10438000114B036082235B00436000238360E022C3
:10439000D200C26003614361802292008261C361E6
:1043A000036243628362FA3AFF3AC26203630833EC
:1043B000436301F017F8002800D110BDFFF798FF04
:1043C000FBE7C046300500200030014010B588B042
:1043D00004001422002103A803F041F82268124BC4
:1043E0009A4201D008B010BD104B9A698021490152
:1043F0000A439A619A690A400192019A5A69802196
:1044000089020A435A615B690B400293029BA02315
:1044100003939E3B049301330693902003A9C005A8
:1044200000F0A6FADEE7C04600300140001002406E
:1044300082B00A4B996901221143996199690A4036
:104440000092009ADA69802149050A43DA61DB6942
:104450000B400193019B02B07047C0460010024020
:10446000FEE7FEE77047704710B500F0D5F810BDC5
:1044700010B5024800F026FA10BDC0469405002091
:1044800010B5024801F092F910BDC046D8050020D1
:1044900072B6BFF34F8FBFF36F8F704762B670472E
:1044A00010B50400FFF7F4FF200010BD10B50400A4
:1044B000FFF7F4FF200010BD7047000010B50D4855
:1044C0000D4B0360E1231B02436000238360C36044
:1044D00003610C2242618361C36103620432426260
:1044E000C36301F0EDFC002800D110BDFFF700FF11
:1044F000FBE7C046D80500200044004010B588B056
:1045000004001422002103A802F0A9FF2268224B14
:104510009A4201D008B010BD204BD9698022920286
:104520001143D961D9691140019101995969114328
:1045300059615B6913400293029B0C2303930A3B6E
:104540000493013B0593032206920793902003A94D
:10455000C00500F00DFA1248124B036000234360BF
:1045600083608022C26003614361836180235B01B9
:10457000C36100F0FDF800280BD1094B23675C6292
:10458000002200211C2000F0B7F81C2000F0B8F831
:10459000C0E7FFF7ADFEF0E7004400400010024026
:1045A000940500205800024010B504000F4B197804
:1045B000FA208000FBF7B2FD01000D4B1868FBF7F5
:1045C000ADFD00F0A9F800280DD1032C01D9012080
:1045D0000AE0013000222100404200F08DF8054B36
:1045E0001C60002000E0012010BDC0461C0000201F
:1045F000180000202000002010B5064A1368102182
:104600000B4313600320FFF7CFFFFFF711FF0020DC
:1046100010BDC04600200240034A1168034B1B78BE
:104620005B1813607047C0465C0600201C00002029
:10463000014B18687047C0465C06002070B5040046
:10464000FFF7F6FF0500631C02D0044B1B78E4184B
:10465000FFF7EEFF401BA042FAD370BD1C00002004
:1046600070B5002811DB8308134DC0339B005C59E3
:1046700003221040C000FC3216008640B44389017A
:104680000A40824022435A5170BD0F230340083B29
:104690009B0806339B00094A944663445C680322E6
:1046A0001040C000FC3215008540AC4389010A402F
:1046B000824022435A60E7E700E100E000ED00E0BD
:1046C000013880235B0498420FD2094A50600948A0
:1046D000036A1B021B0AC02109060B430362002365
:1046E000936007331360002070470120FCE7C04649
:1046F00010E000E000ED00E010B5FFF7B1FF10BDE5
:10470000002805DB1F22024001239340014A136069
:104710007047C04600E100E010B5FFF7D1FF10BDC3
:1047200070B5066CC56B0124B4406C6004686360AE
:104730004368102B04D0036899600368DA6070BD89
:1047400003689A600368D960F9E7000010B50400B7
:104750000068054B9C4660441421FBF7DFFC800099
:104760002064024BE36310BDF8FFFDBF0000024070
:1047700070B5041E20D021250223435501680A6824
:104780000E4B1A40436880680343E0680343206986
:10479000034360690343A0690343E0690343134390
:1047A0000B602000FFF7D2FF0023A36301226255B4
:1047B0001F32A354002070BD0120FCE70FC0FFFF93
:1047C00070B504002020205C012832D02020012573
:1047D00025540130205C012804D020230022E2541B
:1047E000022070BD2030013525540020A0632568CB
:1047F00028680126B04328602000FFF791FFE36A94
:10480000002B0BD0226813680E210B431360226823
:10481000136801210B4313600020E2E7226813684C
:104820000A210B4313602268136806398B43136017
:10483000EDE70220D5E710B52123C35C022B06D09B
:10484000042383631C330022C254012010BD02687C
:1048500013680E218B43136001680A6801239A4391
:104860000A60016CC26B1C008C405460212283548E
:104870001F330022C2540020E8E710B52123C35C97
:10488000022B03D004238363012010BD0268136848
:104890000E218B43136001680A6801239A430A6062
:1048A000016CC26B1C008C405460212283541F3366
:1048B0000022C254436B002B02D098470020E4E74B
:1048C0000020E2E770B5C36B1A6804682568016CC4
:1048D00004238B401A4212D06B0710D523689B0625
:1048E00003D42368042293432360016CC26B042326
:1048F0008B405360C36A002B00D0984770BD0223E1
:104900008B401A4218D0AB0716D523689B0606D4F5
:1049100023680A22934323602123093AC254016C7D
:10492000C26B02238B40536020230022C254836A4F
:10493000002BE3D09847E1E708238B401A42DDD0F3
:104940002D07DBD523680E2293432360016CC26BD5
:1049500001231C008C4054608363212283541F3345
:104960000022C254036B002BC8D09847C6E7000052
:10497000F0B583B0002356E086685F000324BC4096
:10498000A643CC68BC4034438460446894434E687A
:104990003609012232409A402243426053E0DE0849
:1049A0000836B600375805321A4092000F2494405A
:1049B000A7430C69944022003A43325056E0032644
:1049C00000E00026A64034003C4302329200444EF0
:1049D0009451444A1768EA433E00AE434C68E403EE
:1049E00001D53E002E433F4C266067683E001640CE
:1049F0004C68A40301D53E002E433A4C6660A7687C
:104A00003E0016404C68E40201D53E002E43354C72
:104A1000A660E66832404C68A40201D52A00324301
:104A2000304CE26001330C682200DA4056D001229B
:104A30009A40250015401442F4D04E6803243440B7
:104A4000013C012C98D94C6803222240032A08D04B
:104A5000C4685E000322B24094438A68B240224395
:104A6000C2604C6803222240022A98D004685E008B
:104A700003221700B740BC434F683A40B24022437C
:104A800002604C68C02292021442CBD0164CA66938
:104A900001221643A661A46922400192019A9A0854
:104AA000941CA4000E4EA75903241C40A4000F26FA
:104AB000A640B7439026F605B04282D00B4EB042D6
:104AC00008D00B4EB04207D00A4EB04200D176E774
:104AD000052677E7012675E7022673E703B0F0BDE8
:104AE00000000140000401400010024000040048A2
:104AF00000080048000C0048002A01D0816170477E
:104B00008162FCE77047000010B5054B5B691842F5
:104B100000D110BD024B5861FFF7F4FFF9E7C04622
:104B20000004014070B582B0041E00D12EE203687B
:104B3000DB0726D5AE4B5A680C231340042B18D044
:104B4000AB4B5A680C231340082B0ED06368012B23
:104B50003CD0002B51D1A64B1A68A6490A401A60D6
:104B60001A68A5490A401A6036E0A14B5B68DB036E
:104B7000ECD59F4B1B689B0303D56368002B00D1CA
:104B800007E223689B0772D5994B5B680C221A4297
:104B90005DD0974B5A680C231340082B53D0E36821
:104BA000002B00D185E0924A136801210B4313606A
:104BB000FFF73EFD05008E4B1B689B0770D4FFF787
:104BC00037FD401B0228F6D90320E0E1884A11682E
:104BD00080235B020B4313606368002B25D0FFF733
:104BE00027FD0500824B1B689B03CAD4FFF720FDFD
:104BF000401B6428F6D90320C9E1052B09D07C4B62
:104C00001A687C490A401A601A687B490A401A608F
:104C1000E2E7774B19688022D2020A431A601968CA
:104C2000802252020A431A60D6E7FFF701FD050011
:104C30006F4B1B689B03A4D5FFF7FAFC401B64284D
:104C4000F6D90320A3E16A4B5B68DB03A7D4684B6A
:104C50001B689B0703D5E368012B00D09BE16449E7
:104C60000B68F82293432269D20013430B60236838
:104C70001B0744D5E369002B2ED05D4A536A0121FE
:104C80000B435362FFF7D4FC0500594B5B6A9B074B
:104C900035D4FFF7CDFC401B0228F6D9032076E17E
:104CA00053490B68F82293432269D20013430B60E7
:104CB000DDE74F4A136801218B431360FFF7B8FC0F
:104CC00005004B4B1B689B07D1D5FFF7B1FC401B80
:104CD0000228F6D903205AE1454A536A01218B4341
:104CE0005362FFF7A5FC0500414B5B6A9B0706D5A5
:104CF000FFF79EFC401B0228F6D9032047E12368FA
:104D00005B0700D480E03A4BDB69DB001DD4384BF5
:104D1000DA69802149050A43DA61DB690B400193B6
:104D2000019B0125354B1B68DB0510D5A368012BC2
:104D300021D0002B36D12E4B1A6A01218A431A62E8
:104D40001A6A03318A431A621AE00025EAE72B4AFD
:104D5000116880235B000B431360FFF769FC0600BA
:104D6000264B1B68DB05E1D4FFF762FC801B64283F
:104D7000F6D903200BE11E4A136A01210B4313628B
:104D8000A368002B24D0FFF753FC0600184B1B6AC6
:104D90009B0737D4FFF74CFC801B194B9842F5D981
:104DA0000320F4E0052B09D0114B1A6A01218A4334
:104DB0001A621A6A03318A431A62E1E70C4B1A6AD3
:104DC00004210A431A621A6A03390A431A62D7E7AE
:104DD000FFF72EFC0600064B1B6A9B0712D5FFF758
:104DE00027FC801B064B9842F5D90320CFE0C04634
:104DF00000100240FFFFFEFFFFFFFBFF00700040BE
:104E000088130000012D33D02368DB0610D56369B9
:104E1000012B33D0053351D1654A536B04218B43A9
:104E20005363536BF4318B43A169C9000B43536344
:104E3000236A002B00D1B0E05D4A51680C220A4081
:104E4000082A00D18AE0022B4FD0594A13685949E9
:104E50000B401360FFF7ECFB0400554B1B689B01F4
:104E60007AD5FFF7E5FB001B0228F6D903208EE078
:104E70004F4AD36950490B40D361C5E74C4B5A6B3D
:104E800004210A435A635A6B03390A435A63FFF7F2
:104E9000CFFB0500464B5B6B9B0706D4FFF7C8FBB7
:104EA000401B0228F6D9032071E041494B6BF822E0
:104EB0009343A269D20013434B63B9E73C4B5A6B4F
:104EC00004210A435A635A6B03398A435A63FFF732
:104ED000AFFB0500364B5B6B9B07A9D5FFF7A8FB23
:104EE000401B0228F6D9032051E0314A13683149AA
:104EF0000B401360FFF79CFB05002D4B1B689B01CB
:104F000006D5FFF795FB401B0228F6D903203EE0AB
:104F1000274BDA6A0F218A43E16A0A43DA625A6848
:104F200026490A40A16A606A01430A435A60196827
:104F3000802252040A431A60FFF77AFB04001C4BDC
:104F40001B689B0106D4FFF773FB001B0228F6D9F0
:104F500003201CE000201AE0002018E0012B1ED0E6
:104F6000134B5A68D86A80235B021340616A8B42F4
:104F700017D10F230340E16A8B4214D1F0239B0326
:104F80001A40A36A9A4210D1002000E0012002B02A
:104F900070BD0120FBE70120F9E70020F7E70120C1
:104FA000F5E70120F3E70120F1E70120EFE7C04634
:104FB00000100240FFFFFFFEFFFFFFEFFFFFC2FFF9
:104FC00030B589B004AA164B31CB31C21B681360CF
:104FD0006A46144B31CB31C21B681360124B5A68BE
:104FE0000C231340082B02D0104809B030BD910C9F
:104FF0000733194004A8445C0B49C96A0B40694651
:10500000C95CD20304D50948FBF788F86043ECE794
:105010006201121B93019B1ADB001B191802E4E7C3
:10502000789900088C9900080010024000127A005C
:1050300070B504000D00002800D17EE0434B1A68D3
:10504000012313408B420AD240490B68012293434B
:105050002B430B600B681A40AA4200D06FE0236814
:105060009A070ED55B0705D5394A5168E023DB0066
:105070000B435360364A5368F0218B43A1680B43BE
:1050800053602368DB072DD56368012B1ED0022BEC
:1050900022D02F4A1268920753D52D494A6803201F
:1050A000824313434B60FFF7C3FA0600284B5B684B
:1050B0000C221A4063689B009A4213D0FFF7B8FA9B
:1050C000801B244B9842F1D9032035E0204A126816
:1050D0009203E2D401202FE01D4A12689201DCD431
:1050E000012029E0194B1A6801231340AB4209D96A
:1050F00016490B68012293432B430B600B681A403F
:10510000AA4220D123685B0706D5114A5368124989
:105110000B40E1680B435360FFF752FF0C4B5A689A
:1051200012090F2313400D4AD35CD8400C4B186072
:105130000320FFF739FA002070BD0120FCE70120B1
:10514000FAE70120F8E70120F6E7C0460020024018
:105150000010024088130000FFF8FFFF6899000864
:1051600018000020014B18687047C0461800002046
:1051700010B5FFF7F7FF044B5A68120A07231340D4
:10518000024AD35CD84010BD00100240609900086C
:10519000F0B5D6464F464646C0B582B006000D0073
:1051A00090461F00FFF744FA0A9B181A8146B9443B
:1051B000FFF73EFA82462C4B1B685B011B0D4A46EB
:1051C0005343019333689C682C40641B63425C41E9
:1051D000444542D07B1CF5D0FFF72AFA5346C01A4B
:1051E000484508D2019A002A00D04A46019B013B5B
:1051F00001939146E6E732685368E0218B435360A0
:10520000726882235B009A420CD0B26A80239B01B1
:105210009A4216D05D230122F254013B0022F2543F
:1052200003201BE0B36880221202934203D0802245
:10523000D2009342E9D13268136840218B43136056
:10524000E3E73268136809490B401360326811685C
:1052500080239B010B431360DCE7002002B0E0BC1D
:10526000BA46B146A846F0BD18000020FFDFFFFF98
:10527000F0B5DE4657464E464546E0B583B00700DA
:105280000D00160098466B460022DA70FFF7D0F941
:105290000C9B181A40448146FFF7CAF982463B68C6
:1052A0009B46344B1B689A00D218D3009B1A1B0DE7
:1052B0004A465343019302E04346013311D13B6810
:1052C0009C682C40B4424DD0C023DB009D42F3D1FA
:1052D000002EF1D15B461B7BDBB26A46D370D378DC
:1052E000EAE7FFF7A5F95346C01A484508D2019AE4
:1052F000002A00D04A46019B013B01939146DEE71C
:105300003A685368E0218B4353607A6882235B00DC
:105310009A420CD0BA6A80239B019A4216D05D2330
:105320000122FA54013B0022FA5403201BE0BB681F
:1053300080221202934203D08022D2009342E9D10C
:105340003A68136840218B431360E3E73A681368B7
:1053500009490B4013603A68116880239B010B4395
:105360001360DCE7002003B0F0BCBB46B246A946A0
:10537000A046F0BD18000020FFDFFFFF70B582B02F
:1053800004000D001600C02100922B0000224901EC
:10539000FFF76EFF002818D100962B000022802115
:1053A0002000FFF7F5FE002816D1C02100962B0043
:1053B0000022C9002000FFF75BFF00280AD0236EFF
:1053C000202213432366032004E0236E202213438C
:1053D0002366032002B070BD236E20221343236690
:1053E0000320F7E770B5041E00D178E0436A002B74
:1053F00007D142680533FF339A4205D00023C361C9
:1054000002E00023036143610023A3625D33E35C98
:10541000002B5AD05D230222E254226813684021F7
:105420008B431360E368E022D200934254D90022F8
:10543000F02109018B4205D0E021C9008B4201D047
:105440000023A3626368822149000B40A168842085
:10545000000201400B432069022101400B436069B7
:10546000012108400343A0698025AD002840034383
:10547000E569382028400343256A802028400343FB
:10548000A06A8025AD012840256803432B60608B0E
:1054900004230340656A102028400343656B0820FD
:1054A00028400343E068F0252D012840034320688D
:1054B000134343602268D3690A480340D361002341
:1054C00023665D33E154002070BD5C330022E2545A
:1054D0002000FEF77BFF9DE780225201A8E7012014
:1054E000F2E7C046FFF7FFFFF0B5CE4600B584B047
:1054F0000400019191461D005C23C35C012B00D187
:10550000C9E05C230122C254FFF792F806005D2334
:10551000E35CDFB2012B00D0A9E00199002900D1A2
:10552000A6E04B46002B00D1A2E05D230322E2540B
:1055300000232366A1634A46A287E28723644422AC
:10554000A3520232A3522365E364A26880231B02A4
:105550009A421ED0226813685B0603D41368402168
:105560000B431360E268E023DB009A4239D9636899
:10557000002B02D04B46012B20D1A26B236812884E
:10558000DA60A36B0233A363E38F013B9BB2E38733
:1055900014E02268136840218B431360226811686D
:1055A0008023DB010B431360D4E7FFF741F8801B36
:1055B000A84201D36B1C66D1002D66D0E18F89B261
:1055C00000293CD0226893689B07EED5A36B1B880B
:1055D000D360A36B0233A363E38F013B9BB2E387EA
:1055E000ECE76368002B02D04B46012B14D1A26B71
:1055F000236812781A73A36B0133A363E38F013B13
:105600009BB2E38708E0FFF713F8801BA84201D3A1
:105610006B1C3CD1002D3CD0E18F89B200290ED00B
:10562000226893689B07EED5A36B1B781373A36B5B
:105630000133A363E38F013B9BB2E387ECE73200C6
:1056400029002000FFF79AFE002801D020232366BE
:10565000A368002B06D103932368DA6803929B6842
:105660000393039B236E002B02D1002700E0022747
:105670005D230122E254013B0022E254380004B0D1
:1056800080BCB946F0BD0327F2E70327F0E7032704
:10569000EEE70327ECE70227F0E710B5EFF3108100
:1056A000012383F3108802681368C024A3431360A6
:1056B00081F310882023836710BD000010B5EFF33D
:1056C000108C012282F3108801680B68124C234071
:1056D0000B608CF31088EFF3108C82F31088016854
:1056E0008B6893438B608CF31088036E012B05D07D
:1056F0002023C36700230366436610BDEFF31081C8
:1057000083F31088026813683234FF34A3431360B4
:1057100081F31088ECE7C046DFFEFFFF704710B54D
:10572000EFF31081012383F310880268136840248B
:10573000A343136081F310882023836700238366CB
:10574000FFF7ECFF10BD704770B5446AA26FE56FBC
:1057500023689B681B0601D5212A0ED023689B680D
:105760005B0601D5222D0FD08022A35810210B43B8
:10577000A3502000FDF7DCFE70BD52230022E25250
:105780002000FFF78AFFE9E75A230022E2522000B7
:10579000FFF794FFE8E710B5406A00235A228352CE
:1057A000083A8352FDF7C4FE10BD704770B504007F
:1057B0000268D36911689068A84D2B4209D19D06F3
:1057C0000FD58D060DD5636E002B1DD02000984798
:1057D0001AE001252E000640054216D1A04D2942AF
:1057E00013D1256E012D00D192E0DD0202D54002D9
:1057F00000D521E11A0602D50A0600D523E15B0691
:1058000002D5490600D525E170BDD80707D5C805E2
:1058100005D501251562802022582A4322509A0777
:1058200009D5002E07D02268022010627E3022584F
:1058300004252A4322505A0709D5002E07D0226892
:10584000042010627C30225802252A4322501A0775
:105850000AD58A0601D4002E06D0226808251562D2
:10586000802022582A4322501A050AD54A0108D519
:1058700022688020000110628020225820252A43BF
:1058800022508022A258002ABED09B0606D5890647
:1058900004D5636E002B01D0200098478023E25886
:1058A00023689B685B0602D42823134229D020007A
:1058B000FFF704FF23689B685B061ED5EFF310819A
:1058C000012383F310882268936840208343936008
:1058D00081F31088236F002B0BD0624A5A63206F2C
:1058E000FEF7CBFF002800D18EE7206F436B98476F
:1058F0008AE72000FDF71CFE86E72000FDF718FE72
:1059000082E72000FDF714FE80230022E2507BE7AF
:10591000DD0600D469E7CD0600D466E710231362E4
:1059200023689B685B064FD5226F13685B689BB248
:10593000002B00D168E75821615A994200D863E7EB
:105940005A2163529369202B09D15823E15A02331B
:10595000E35AC91A89B22000FFF727FF54E7EFF393
:105960001080012383F3108821680A683E4D2A4085
:105970000A6080F31088EFF3108083F310882168A9
:105980008A689A438A6080F31088EFF3108083F36B
:10599000108821688A684235FF35AA438A6080F3FF
:1059A00010882022E26700222266EFF3108183F341
:1059B00010882268136810208343136081F31088D5
:1059C000206FFEF738FFC0E75823E35A5A22A15A46
:1059D000591A89B2A35A9BB2002B00D114E70029AF
:1059E00000D111E7EFF31085012383F310882068BD
:1059F00002681E4E3240026085F31088EFF3108576
:105A000083F31088206882689A43826085F3108847
:105A10002022E267002222666266EFF3108083F3A1
:105A20001088226813681025AB43136080F3108838
:105A30002000FFF7BAFEE7E680235B031362200035
:105A400000F005FBE0E6A36E002B00D1DCE62000B1
:105A50009847D9E62000FFF762FED5E60F08000060
:105A60002001000497570008FFFEFFFFDFFEFFFF45
:105A700010B5406A036E012B02D0FFF764FE10BD23
:105A80005733C15A4908FFF790FEF8E770B5030095
:105A9000406A9B69202B28D05A230022C252EFF380
:105AA0001084593B83F3108801680A681A4D2A4014
:105AB0000A6084F31088EFF3108483F31088016880
:105AC0008A689A438A6084F31088EFF3108183F325
:105AD0001088026893684024A343936081F3108880
