:020000040800F2
:1000000000200020795C0008213B0008233B000809
:1000100000000000000000000000000000000000E0
:10002000000000000000000000000000253B000868
:100030000000000000000000273B0008293B0008EA
:10004000C95C0008C95C0008C95C0008C95C0008FC
:10005000C95C0008152C0008C95C0008C95C0008D0
:10006000C95C0008C95C0008C95C0008313B000895
:10007000C95C0008C95C0008C95C0008C95C0008CC
:10008000C95C0008C95C000800000000C95C0008E9
:10009000C95C0008C95C0008C95C0008C95C0008AC
:1000A000C95C0008C95C0008C95C0008C95C00089C
:1000B000413B000800000000C95C0008000000008F
:1000C00010B5064C2378002B07D1054B002B02D02E
:1000D000044800E000BF0123237010BD7C00002015
:1000E000000000003C790008044B10B5002B03D041
:1000F0000349044800E000BF10BDC04600000000F6
:10010000800000203C79000803B471464908400093
:100110004900095E49008E4403BC70470022430831
:100120008B4274D303098B425FD3030A8B4244D3BF
:10013000030B8B4228D3030C8B420DD3FF22090201
:1001400012BA030C8B4202D31212090265D0030BC0
:100150008B4219D300E0090AC30B8B4201D3CB03B6
:10016000C01A5241830B8B4201D38B03C01A5241F8
:10017000430B8B4201D34B03C01A5241030B8B42FA
:1001800001D30B03C01A5241C30A8B4201D3CB02E5
:10019000C01A5241830A8B4201D38B02C01A5241CA
:1001A000430A8B4201D34B02C01A5241030A8B42CD
:1001B00001D30B02C01A5241CDD2C3098B4201D3E5
:1001C000CB01C01A524183098B4201D38B01C01A63
:1001D000524143098B4201D34B01C01A52410309DA
:1001E0008B4201D30B01C01A5241C3088B4201D389
:1001F000CB00C01A524183088B4201D38B00C01A36
:10020000524143088B4201D34B00C01A5241411A5C
:1002100000D20146524110467047FFE701B5002069
:1002200000F0F0F802BDC0460029F7D076E770472D
:1002300003460B437FD4002243088B4274D3030947
:100240008B425FD3030A8B4244D3030B8B4228D3E8
:10025000030C8B420DD3FF22090212BA030C8B420E
:1002600002D31212090265D0030B8B4219D300E0AE
:10027000090AC30B8B4201D3CB03C01A5241830B33
:100280008B4201D38B03C01A5241430B8B4201D3E3
:100290004B03C01A5241030B8B4201D30B03C01A0C
:1002A0005241C30A8B4201D3CB02C01A5241830A86
:1002B0008B4201D38B02C01A5241430A8B4201D3B5
:1002C0004B02C01A5241030A8B4201D30B02C01ADF
:1002D0005241CDD2C3098B4201D3CB01C01A524146
:1002E00083098B4201D38B01C01A524143098B42CF
:1002F00001D34B01C01A524103098B4201D30B01B8
:10030000C01A5241C3088B4201D3CB00C01A5241DC
:1003100083088B4201D38B00C01A524143088B42A1
:1003200001D34B00C01A5241411A00D2014652413A
:10033000104670475DE0CA0F00D04942031000D359
:100340004042534000229C4603098B422DD3030AAE
:100350008B4212D3FC22890112BA030A8B420CD3BE
:10036000890192118B4208D3890192118B4204D3E7
:1003700089013AD0921100E08909C3098B4201D367
:10038000CB01C01A524183098B4201D38B01C01AA1
:10039000524143098B4201D34B01C01A5241030918
:1003A0008B4201D30B01C01A5241C3088B4201D3C7
:1003B000CB00C01A524183088B4201D38B00C01A74
:1003C0005241D9D243088B4201D34B00C01A52414B
:1003D000411A00D20146634652415B10104601D3D8
:1003E0004042002B00D54942704763465B1000D362
:1003F000404201B5002000F005F802BD0029F8D008
:1004000016E770477047C04670B504008B23DB00C9
:10041000C01802F0B6FB002803D0114BE35C002BA0
:1004200003D1104BE35E002B13D00E4BE15E00298D
:1004300010D1D7239B00E518203BE118280001F0DC
:1004400069FF280000F06EFA0023054AA354054A0C
:10045000A35270BDD7239B00E01802F03DF9E8E7F6
:10046000560400005404000010B5D6239B00C15868
:10047000002904D00548802205F010F910BD044B76
:10048000044A0548753106F011F8C046C005002041
:100490006C79000888790008B479000870B5040008
:1004A0000D008C23DB00C01802F06BFB002801D08C
:1004B000014BE55270BDC0465404000010B50369FD
:1004C000032B0AD80A689B001A5001694B1C036170
:1004D000032907D88900401810BD044804221900D8
:1004E00005F0CAFF0148042205F0C6FF007A0008A3
:1004F000F0B583B0050080229200002106F00FFBCA
:100500008027BF00EC1910220021200006F007FB15
:100510000026266185239B00EC1810220021200074
:1005200006F0FDFA266166612C00EE1907E00194E1
:1005300080239B00E81801A9FFF7C0FF8034B44274
:10054000F5D1280003B0F0BD70B50400FFF7D0FF6F
:100550000025D6239B00E5500433E01802F03AF959
:10056000094BE5520022094BE254FA210233E0180C
:10057000C90002F0FEFA96218C23DB00E018490046
:1005800002F0F7FA200070BD540400005604000089
:1005900070B582B006000C000D69AD004D1907E082
:1005A00008CC019380239B00F01801A9FFF786FF78
:1005B000AC42F5D102B070BD10B501690139032913
:1005C00002D88900401810BD0148042205F054FFEC
:1005D000007A000810B5030001690139032903D826
:1005E0008A001058196110BD0148042205F044FF2B
:1005F000007A000870B580239B00C4182000FFF724
:10060000DBFF05682000FFF7E5FF280070BD000054
:1006100010B582B00400D6239B00C358002B01D034
:1006200002B010BD01A803F09BFA80239B00E318E1
:100630001B69002B03D101A803F098FAF0E7200012
:10064000FFF7D8FF0100D6239B00E050024880222C
:1006500005F024F8EFE7C046C005002010B5436858
:10066000994207D80268511803220A400260013BF0
:10067000436010BD024B034A0348342105F016FFC6
:10068000347A0008407A00088C7A000810B5436973
:10069000002B04D010300121FFF7E0FF10BD034B09
:1006A000034A0448F52105F001FFC046DC7A000842
:1006B000E87A00088C7A0008F0B583B006000D00D7
:1006C00014001022002106F02AFA002333610FE003
:1006D00089239B00EB5885229200A8189B00C458E0
:1006E000FFF7D4FF019401A93000FFF7E7FE3C00BB
:1006F000671E002C05D089239B00EB185B68002B3C
:10070000E6D1300003B0F0BDF0B5D6464F464646C0
:10071000C0B592B0060089239B00C3185C68102204
:10072000002108A806F0FBF900230C93002C07D148
:100730000C9B9B0008AA91469944904600243AE0FD
:1007400005A803F00DFA89239B00F3185A68002AC4
:1007500003D105A803F00AFAEAE7022A00D9022227
:1007600031000DA8FFF7A8FF08AA0DAB1100180073
:10077000B0C8B0C10068086011990C9100221192B4
:10078000E7E705AD0599CF239B00F01802F060FF65
:100790006C46069A3B005146200002F07FFF07CCD2
:1007A00007C5174B0122F2540124079F002FE8D1FF
:1007B00004239C46E044C8450CD043461A688B236A
:1007C0009B009A46B244AD3BFF3B514605A802F060
:1007D00065FFEAE70C9B002B06D1200012B0E0BCBD
:1007E000BA46B146A846F0BD05A803F0B9F908A974
:1007F0003000FFF7CDFE05A803F0B8F9EDE7C046DD
:100800005604000010B54369042B00D010BD034B03
:10081000034A04489D2105F049FEC046847B000838
:10082000947B00088C7A000810B543680422D21A21
:10083000914202D85B18436010BD034B034A044841
:100840002E2105F033FEC046947C0008A47C0008ED
:100850008C7A000870B504000D00FFF7D3FF226901
:100860006369D218032313409B002A68E2502000DA
:1008700010300121FFF7D8FF70BD000010B582B025
:100880000400D6239B00C358002B12D0852292006F
:100890008018019301A9FFF7DDFF80239B00E31877
:1008A0001B69002B0BD1D6239B000022E25002B023
:1008B00010BD094B094A0A48682105F0F7FD2000E0
:1008C000FFF798FE0100D6239B00E05005488022E8
:1008D00004F0E4FEEBE7C0466C790008F07C000809
:1008E000B4790008C005002010B54023C15A03297F
:1008F00007D810304B005B189B00C01802F01BFAA1
:1009000010BD0248042205F0B7FDC046007A000879
:1009100010B504008368002B02D003220100984721
:10092000200010BD10B50400037F002B03D1637FAE
:10093000002B06D110BD043002F0FDF9002323770F
:10094000F5E72000103002F0F6F900236377F1E7B5
:1009500070B5060002F0F8FD3400103403250AE0FB
:100960000C220021200006F0DAF8646024600023E5
:10097000A360013D0C34002DF2DA034B33604023B9
:100980000022F252300070BD8C7F000810B505299E
:100990000AD8012A0ED849008A189423C058D300D7
:1009A0009B18DB00C01810BD054B064A06483021D5
:1009B00005F07CFD054B034A0348312105F076FD27
:1009C000207D0008307D00089C7D0008E07D000847
:1009D00070B514000D1A884201D1601970BD2A004B
:1009E0000100200006F088F8F7E710B5040003784E
:1009F000002B08D04068002805D0042105F012FD26
:100A000000232370636010BD10B504000378002B31
:100A100008D04068002805D0042105F003FD00231C
:100A20002370636010BD10B504000378002B08D05C
:100A30004068002805D0082105F0F4FC002323704D
:100A4000636010BD10B504000378002B08D0406827
:100A5000002805D0082105F0E5FC00232370636021
:100A600010BD10B504001030FFF7DDFF2000083086
:100A7000FFF7CAFF2000FFF7E5FF200010BD10B50B
:100A800004000378002B08D04068002805D004211A
:100A900005F0C8FC00232370636010BD10B5032966
:100AA00009D8012A0DD849008A18406FD3009B1835
:100AB000DB00C01810BD064B064A0748302105F080
:100AC000F5FC064B034A0448312105F0EFFCC04613
:100AD000207D0008EC7D00089C7D0008E07D00087A
:100AE00010B504000378002B08D04068002805D01A
:100AF000042105F097FC00232370636010BD000003
:100B000070B50400150002F01FFD260010360C22FF
:100B10000021300006F003F8666126610023A3611E
:100B20002A6823772262054B23602000243060224C
:100B3000002105F0F4FF200070BDC046A47F00082E
:100B400070B50400150002F0FFFC260010360C22E0
:100B50000021300005F0E3FF666126610023A361F8
:100B60002A6823772262054B23602000243040222C
:100B7000002105F0D4FF200070BDC046D47F0008DE
:100B800070B505000C0001230370082005F04EFC31
:100B9000030006CC06C36860280070BD70B5040071
:100BA0000E0001230370082005F040FC0500082218
:100BB000310006F08CF86560200070BD70B504004F
:100BC0001E000B680025057043600572C56010307B
:100BD0001100FFF7D5FF200018303100FFF7DEFFCE
:100BE0002023E55465620833E554E562200070BDBA
:100BF00070B5040015001E0002F0A6FC084B23612E
:100C000020001430049B32002900FFF7D7FF054B6A
:100C10002361054B236018332361200070BDC0465B
:100C2000787F0008C0800008148E000810B582B0DC
:100C3000019200938368002B05D0C4686B4601AA1B
:100C4000A04702B010BD05F01BFCF0B5C64600B5CC
:100C50000500884600240EE06608012727403A0078
:100C600031002800FFF792FE01003B0032004046B1
:100C7000FFF7DCFF01342B0094335A689423EB58C0
:100C8000D21AD210D3009B1A99015B18DB009B1873
:100C9000D903CB1ADB009B189C42DDD380BCB8463D
:100CA000F0BDF0B5C64600B50500884600240EE04C
:100CB0006608012727403A0031002800FFF7EEFEC2
:100CC00001003B0032004046FFF7B0FF0134AA6F3D
:100CD0006B6FD21AD210D3009B1A99015B18DB00FC
:100CE0009B18D903CB1ADB009B189C42E0D380BC35
:100CF000B846F0BD70B514000D1A884201D16019D4
:100D000070BD2A000100200005F0F6FEF7E710B5DF
:100D10000800110005F086FB10BD10B50400016845
:100D20008268521A002901D0FFF7F1FF200010BDA0
:100D300070B504000378002B0CD04568002D09D055
:100D40002800FFF7EAFF0C21280005F06BFB0023C9
:100D50002370636070BD10B504002830FFF78FFE6C
:100D600020002030FFF7E4FF20001830FFF76AFE74
:100D700020001030FFF757FE20000830FFF744FE38
:100D80002000FFF732FE200010BD30B583B0040014
:100D90000B68002B12D04A68002A0FD005685868EB
:100DA00002F01DFB01900023EA5E01AB00215B5EB7
:100DB0009A4205DB236800216A5E1A8003B030BDC9
:100DC00001ADF7E730B583B06B4600225A8002339D
:100DD0000193C90044182500603504E0210001A8F2
:100DE000FFF7D3FF1034A542F8D86B46023300203A
:100DF000185E03B030BD30B583B004000B68002B23
:100E000012D04A68002A0FD00568586802F0E7FA45
:100E100001900023EA5E01AB02215B5E9A4205DB92
:100E2000236800216A5E1A8003B030BD6B469D1DA9
:100E3000F6E730B583B06B4600225A800233019347
:100E4000090144182500103504E0210001A8FFF72E
:100E5000D2FF0834A542F8D86B4602330020185E52
:100E600003B030BD30B505005400E418E40020584C
:100E7000002805D028194068002801D0002007E08C
:100E80005200D218D200A8180B002C3353514160E5
:100E900030BDF0B583B0060017001D00042268467F
:100EA00005F015FF002408E021003000FFF7C1FF26
:100EB0006B465988091859800134A742F4DC002494
:100EC00008E029003000FFF77DFF6B461A881218F2
:100ED0001A800134A542F4DC01AA009B01935388D7
:100EE0001B041088184303B0F0BD30B583B0030075
:100EF00004306C4606E01A880D88521B22800233AB
:100F0000023102349842F6D101AA009B0193538822
:100F10001B041088184303B030BD70B582B00200C6
:100F200004306C4604E0DBB223800232023102342A
:100F3000904208D00023D65E0023CD5E0123AE424E
:100F4000F1DB0023EFE701AA009B019353881B0408
:100F50001088184302B070BD022A0AD007D8002AB0
:100F600003D0012A03D1016001E0002303600020C7
:100F700070470B680360FAE710B5012A02D10160DF
:100F8000002010BDFFF7E8FFFAE730B583B004009A
:100F90000B68002B12D04A68002A0FD005685868E9
:100FA00002F01DFA01900023EA5E01AB00215B5EB6
:100FB0009A4205DB236800216A5E1A8003B030BDC7
:100FC00001ADF7E730B583B06B4600225A8002339B
:100FD0000193C90044182500403504E0210001A810
:100FE000FFF7D3FF1034A542F8D86B460233002038
:100FF000185E03B030BD30B583B004000B68002B21
:1010000012D04A68002A0FD00568586802F0E7F944
:1010100001900023EA5E01AB02215B5E9A4205DB90
:10102000236800216A5E1A8003B030BD6B469D1DA7
:10103000F6E730B583B06B4600225A800233019345
:10104000090144182500103504E0210001A8FFF72C
:10105000D2FF0834A542F8D86B4602330020185E50
:1010600003B030BD30B505005400E418E40020584A
:10107000002805D028194068002801D0002007E08A
:101080005200D218D200A8180B002C3353514160E3
:1010900030BDF0B583B0060017001D00042268467D
:1010A00005F015FE002408E021003000FFF7C1FF25
:1010B0006B465988091859800134A742F4DC002492
:1010C00008E029003000FFF77DFF6B461A881218F0
:1010D0001A800134A542F4DC01AA009B01935388D5
:1010E0001B041088184303B0F0BD022A0AD007D8A9
:1010F000002A03D0012A03D1016001E0002303602C
:10110000002070470B680360FAE710B5012A02D18E
:101110000160002010BDFFF7E8FFFAE770B514008A
:101120000D1A814201D1601970BD2A000100200012
:1011300005F0E2FCF7E710B5FFF7F0FF10BD10B5C2
:10114000080053009A18910005F06CF910BD70B5B5
:101150000400016805E00D6801222000FFF7EFFFA1
:1011600029008C42F7D170BD70B50500060004005F
:10117000303403E00C3C2000FFF7E9FFA642F9D130
:10118000280070BD10B50400044B03601030FFF759
:10119000EBFF200002F0E0F9200010BD8C7F00087A
:1011A00010B50400FFF7EEFF4421200005F03AF9E6
:1011B000200010BD10B50400064B03601C30FFF783
:1011C0008FFC20001030FFF7C2FF200002F0C4F9AE
:1011D000200010BDA47F000810B50400FFF7EAFF4F
:1011E0008421200005F01EF9200010BD10B5040078
:1011F000064B03601C30FFF773FC20001030FFF734
:10120000A6FF200002F0A8F9200010BDD47F00083E
:1012100010B50400FFF7EAFF6421200005F002F991
:10122000200010BD70B504000E00012303700820DB
:1012300005F0FCF805000822310005F048FD656066
:10124000200070BD70B5040009680025057041607C
:1012500012680572C2600574456118301900FFF705
:10126000E1FF2023E55465620833E554E562200080
:1012700070BD000070B5040015001E0002F064F996
:10128000084B236120001430049B32002900FFF733
:10129000D9FF054B2361054B2360183323612000E0
:1012A00070BDC046787F0008C0800008148E00081A
:1012B00010B50300603000E00833984207D95C683D
:1012C0000A689442F8D100221A605A60F4E710BD0F
:1012D00010B50300403000E00833984207D95C683D
:1012E0000A689442F8D100221A605A60F4E710BDEF
:1012F00010B50800D3009A18D10005F093F810BD7E
:1013000070B5050001688468641AE410E3001B1BD3
:101310009A019B18DB001B19DA03D21AD2001219AA
:10132000002901D0FFF7E4FF280070BD70B506006A
:101330000468456804E023689B68200098474834A7
:10134000A542F8D13000FFF7DBFF300070BD000090
:1013500070B504000B4B0360A0250B4B4351A43028
:10136000FFF77FFB094B635120009430FFF7DEFF4E
:1013700020008430FFF766FB2000FFF71BFF2000F2
:1013800070BDC046BC7F000858800008787F000808
:1013900010B50400FFF7DCFFBC21200005F042F887
:1013A000200010BD70B504000B4B036080250B4B73
:1013B00043518430FFF755FB094B635120007430D3
:1013C000FFF7B4FF20006430FFF73CFB2000FFF77D
:1013D0000DFF200070BDC046EC7F0008588000085B
:1013E000787F000810B50400FFF7DCFF9C21200087
:1013F00005F018F8200010BD10B5081E02DB05F03E
:1014000015F810BD05F02FF870B504000D1E07D0BB
:101410000022FFF7F1FF206060604019A06070BDFE
:101420000020F8E730B500E00068884203D0856806
:101430001468A542F8D130BD10B50023FFF7F2FFC4
:1014400010BD70B50C000B68002B0BD04B68002B47
:1014500008D00568286910350A1D2900FFF7ECFF40
:10146000854200D070BD002323606360FAE770B549
:1014700005000E000400603504E021003000FFF795
:10148000E0FF0834A542F8D870BDF0B5CE4600B5EF
:101490008AB004000D0001921F00036A002B00D1E6
:1014A00084E00B6B002B00D182E00600243608910B
:1014B00008A93000FFF7FCFE109B002B21D1210072
:1014C0001031280002F058F83B00019A2900300042
:1014D000FFF7C8FC002800D16FE003685D68216A4F
:1014E0003BB26A460420125E3000FFF7D2FC079040
:1014F00007A9280001F081FF109B002B14D10120C7
:1015000057E0099409A93000FFF7B1FF3900300016
:10151000FFF758FC814601993000FFF78AFC06ABC3
:101520004A461A805880CAE7280001F058FF059003
:1015300006AB00229B5E002B03D105AB1A8806ABDD
:101540001A8006AB02229B5E002B03D105AB5A88A2
:1015500006AB5A80109B022B04D0109B012B07D0A6
:10156000012026E006A9280001F00CFF012020E060
:1015700005A906A8FFF7B9FC039005A906A8FFF77F
:10158000CCFC049003A804A9030006E01A880C8888
:101590006243028002330231023004AA9342F5D141
:1015A00003A9280001F004FF012002E0002000E070
:1015B00000200AB080BCB946F0BD0020F9E770B544
:1015C0000C000B68002B0BD04B68002B08D0056873
:1015D000286910350A1D2900FFF72EFF854200D02B
:1015E00070BD002323606360FAE770B505000E004C
:1015F0000400403504E021003000FFF7E0FF08342C
:10160000A542F8D870BDF0B5CE4600B58AB004004A
:101610000D0001921F00036A002B00D184E00B6BC8
:10162000002B00D182E006002436089108A9300082
:10163000FFF74EFE109B002B21D121001031280016
:1016400001F09AFF3B00019A29003000FFF70AFDE4
:10165000002800D16FE003685D68216A3BB26A46EA
:101660000420125E3000FFF714FD079007A9280040
:1016700001F0C3FE109B002B14D1012057E0099408
:1016800009A93000FFF7B1FF39003000FFF79AFCDD
:10169000814601993000FFF7CCFC06AB4A461A8020
:1016A0005880CAE7280001F09AFE059006AB002298
:1016B0009B5E002B03D105AB1A8806AB1A8006ABE4
:1016C00002229B5E002B03D105AB5A8806AB5A80E1
:1016D000109B022B04D0109B012B07D0012026E089
:1016E00006A9280001F04EFE012020E005A906A869
:1016F000FFF7FBFB039005A906A8FFF70EFC04907B
:1017000003A804A9030006E01A880C88624302803B
:1017100002330231023004AA9342F5D103A9280012
:1017200001F046FE012002E0002000E000200AB0A7
:1017300080BCB946F0BD0020F9E770B514000D1A61
:10174000814201D1601970BD2A000100200005F01E
:10175000D3F9F7E710B5FFF7F0FF10BD10B5FFF7AD
:10176000F9FF10BD70B504000D0049682B68C91A57
:101770000023036043608360FFF746FE28686968C2
:101780002268FFF7EBFF6060200070BD70B51500A8
:101790001E0000290AD00022FFF72EFE04002200BE
:1017A00031002800FFF7DAFF200070BD0024F6E7C3
:1017B000F8B504000D00814210D0496828680E1A5F
:1017C000A7682268BF1AB7420AD36768BF1ABE4229
:1017D00019D8FFF7B0FC23689B1963602000F8BD9F
:1017E0000B00020031002000FFF7D0FF0500216848
:1017F000A268521A002902D02000FFF788FA25605B
:10180000AD19A560E7E7C119FFF774FA29686068A8
:101810002368C31AC9186B685A1A8B42DBD005F0CB
:101820006BF9D8E770B504000D004068002802D0BD
:10183000FFF7BEFF70BD0C3004F0F8FD0600290074
:10184000FFF790FF666001232370F3E710B51400E3
:101850000122FFF79BF834302100FFF7E3FF10BDB2
:1018600070B504000D00002303704B684360002B2B
:1018700002D00B78002B01D1200070BDFFF758FA81
:101880000023636069682000FFF7CCFFF4E70000E5
:1018900010B5084B8B4205D3C8004018C00004F0B7
:1018A000C5FD10BD044B994201D904F0DFFD04F0E1
:1018B000DAFDC046711CC701E3388E0370B5040021
:1018C0000D1E0AD00022FFF7E3FF20606060EB00EE
:1018D0005B19DB00C318A36070BD0020F5E770B58D
:1018E00004000D004368002B02D00A681A6070BD26
:1018F000042004F09BFD2B680360606001232370CB
:10190000F5E770B504000D00002303704B684360D9
:10191000002B02D00B78002B01D1200070BDFFF707
:1019200064F80023636069682000FFF7D8FFF4E7DC
:1019300070B504000D004368002B02D00A681A60DD
:1019400070BD042004F072FD2B6803606060012309
:101950002370F5E770B504000D00002303704B6899
:101960004360002B02D00B78002B01D1200070BD0A
:10197000FFF74AF80023636069682000FFF7D8FF8B
:10198000F4E770B505000C004368002B02D003CCCF
:1019900003C370BD082004F049FD030006CC06C354
:1019A000686001232B70F4E770B504000D0000237C
:1019B00003704B684360002B02D00B78002B01D1E1
:1019C000200070BDFFF72FF80023636069682000D6
:1019D000FFF7D7FFF4E770B504000D00406800285A
:1019E00003D0082205F073F970BD083004F01EFD25
:1019F00006000822290005F06AF9666001232370B9
:101A0000F2E770B504000D00002303704B684360DB
:101A1000002B02D00B78002B01D1200070BDFFF706
:101A200011F80023636069682000FFF7D4FFF4E732
:101A300070B504000D004368002B02D00A681A60DC
:101A400070BD042004F0F2FC2B6803606060012389
:101A50002370F5E770B504000D00002303704B6898
:101A60004360002B02D00B78002B01D1200070BD09
:101A7000FFF705F80023636069682000FFF7D8FFCF
:101A8000F4E770B505000C00FFF73BFF21000831BB
:101A900028000830FFF75EFF2100103128001030C9
:101AA000FFF782FF2100183128001830FFF7A9FF47
:101AB0002100203128002030FFF7D2FE21002831FC
:101AC00028002830FFF7C6FF280070BD70B504005D
:101AD0000D0001F05FFD094B236129001431200046
:101AE0001430FFF7CEFF064B23616B6C6364054B2C
:101AF000236018332361200070BDC046787F000842
:101B0000C0800008148E0008F8B507000C0016000D
:101B1000056805E031002800FFF7D8FF013C483593
:101B2000002CF7D17D60F8BD70B504000D001600E3
:101B3000094B99420CD80023036043608360FFF790
:101B4000BDFE320029002000FFF7DEFF200070BD3F
:101B5000024804F08EFCC046711CC701587E000884
:101B600010B513780A1A884200D110BD190004F08C
:101B7000D6FFFAE710B5002905D000230370431CF7
:101B8000012901D1180010BD4418020021001800DD
:101B9000FFF7E6FF2000F6E770B504000D1E0CDB32
:101BA0000023036043608360FFF72EFC2068290058
:101BB000FFF7E0FF6060200070BD014804F059FCB1
:101BC000587E0008F0B5DE4657464E464546E0B51D
:101BD00085B002AF0600884691469A461368524681
:101BE0000021525E009242460021002004F0D6FE01
:101BF00001003A1D3000FFF7CFFF4B461B685246ED
:101C00000021525E009242460021002004F0C6FEF0
:101C1000050003000833DB08DB006A46D31A9D4643
:101C200002AB9B4600235A46137009336B44441E93
:101C300003E000221A70013C0133002CF9DA53460C
:101C400000229B5E4A4612684146584604F0DAFE7E
:101C50002900594432685846FEF7BAFE3000BD46A6
:101C600003B0F0BCBB46B246A946A046F0BD00009A
:101C700010B584B00400036801330393074B08498F
:101C800003AA6846FFF79EFF2000E0306946FFF791
:101C9000C9FD6846FFF741F804B010BD3480000864
:101CA0008C7E0008F0B5D6464F464646C0B582B099
:101CB00000AF06008846914613680A000021002004
:101CC00004F06CFE01003A1D3000FFF765FF4B4643
:101CD0001B6842460021002004F060FE050003005E
:101CE0000833DB08DB006A46D31A9D46EA46002328
:101CF00052461370541C431E03E000222270013B25
:101D00000134002BF9DA4B461A684146504604F07C
:101D100079FE2900514432685046FEF759FE3000E2
:101D2000BD4602B0E0BCBA46B146A846F0BD0000D0
:101D300010B586B001920122FEF728FE0400074983
:101D400001AA03A8FFF7AEFF2000343003A9FFF774
:101D500069FD03A8FEF7E1FF06B010BD9C7E0008F8
:101D6000F0B5DE4657464E464546E0B585B002AF73
:101D700005000E00904699463B6B9B4613685A46F9
:101D8000126801924A46126800920A00002100205F
:101D900004F004FE01003A1D2800FFF7FDFE434653
:101DA0001B685A46126801924A4612680092320035
:101DB0000021002004F0F2FD040003000833DB08DA
:101DC000DB006A46D31A9D4602AB9A460023524670
:101DD000137009226A44431E03E000211170013B85
:101DE0000132002BF9DA4B461B684246126859460D
:101DF000096800913100504604F004FE210051446E
:101E00002A685046FEF7E4FD2800BD4603B0F0BC4A
:101E1000BB46B246A946A046F0BDF0B5DE465746E1
:101E20004E464546E0B585B002AF0600884691466D
:101E30009A4613685246126800920A000021002058
:101E400004F0ACFD01003A1D3000FFF7A5FE4B4643
:101E50001B6852461268009242460021002004F09E
:101E60009DFD050003000833DB08DB006A46D31A3A
:101E70009D4602AB9B4600235A46137009336B44C0
:101E8000441E03E000221A70013C0133002CF9DAF1
:101E900053461B684A4612684146584604F0B2FD54
:101EA0002900594432685846FEF792FD3000BD467D
:101EB00003B0F0BCBB46B246A946A046F0BD000048
:101EC00070B58CB004000D0003929023C35C002B0E
:101ED00018D00022FEF75AFD060022008C32013590
:101EE0000895124908AB009303AB05A8FFF738FF2C
:101EF0003000343005A9FFF795FC05A8FEF70DFF6B
:101F00000CB070BD0022FEF741FD050022008C32AE
:101F1000074903AB09A8FFF780FF2800343009A95F
:101F2000FFF780FC09A8FEF7F8FEE9E7A47E0008A9
:101F3000AC7E000870B58CB004000D0003927023D5
:101F4000C35C002B18D00022FEF7A8FD060022007B
:101F50006C3201350895124908AB009303AB05A814
:101F6000FFF7FEFE3000343005A9FFF75BFC05A843
:101F7000FEF7D3FE0CB070BD0022FEF78FFD05000A
:101F800022006C32074903AB09A8FFF746FF28007F
:101F9000343009A9FFF746FC09A8FEF7BEFEE9E7C1
:101FA000A47E0008AC7E0008F0B5CE46474680B55A
:101FB00083B000AF060089460A000021002004F02B
:101FC000EDFC01003A1D3000FFF7E6FD4A46002116
:101FD000002004F0E3FC050003000833DB08DB000D
:101FE0006A46D31A9D46E8460023424613700132E2
:101FF000431E03E000241470013B0132002BF9DA88
:102000004946404604F0FEFC2900414432684046FF
:10201000FEF7DEFC3000BD4603B0C0BCB946B0469A
:10202000F0BD30B585B015000122FEF7AFFC04000D
:10203000290001A8FFF7B8FF2000343001A9FFF7FD
:10204000F1FB01A8FEF769FE05B030BDF0B583B025
:1020500005000E0014001F000068094A2100FFF768
:102060002FFF2868074A2100FFF7DBFF28680123BC
:1020700000933B0022003100FFF707FA03B0F0BDE8
:102080008C8F0008B47E000810B51B681268FFF73B
:10209000DDFF10BD30B585B015000122FEF7FEFC56
:1020A0000400290001A8FFF77FFF2000343001A9B8
:1020B000FFF7B8FB01A8FEF730FE05B030BD000009
:1020C000F0B583B005000E0014001F000068094A37
:1020D0002100FFF72FFF2868074A2100FFF7DAFFEA
:1020E0002868012300933B0022003100FFF78BFAA0
:1020F00003B0F0BD8C8F0008B47E000810B51B68DB
:102100001268FFF7DDFF10BDF0B5D6464F464646D4
:10211000C0B582B000AF06008846914613780A0029
:102120000021002004F03AFC01003A1D3000FFF7C6
:1021300033FD4B461B7842460021002004F02EFC64
:10214000050003000833DB08DB006A46D31A9D460E
:10215000EA46002352461370541C431E03E000223B
:102160002270013B0134002BF9DA4B461A784146C4
:10217000504604F047FC2900514432685046FEF7AF
:1021800027FC3000BD4602B0E0BCBA46B146A846C6
:10219000F0BD000030B587B06B46DD1DDA7101225D
:1021A000FEF77CFC040007492A0003A8FFF7ACFFF8
:1021B0002000343003A9FFF735FB03A8FEF7ADFD7F
:1021C00007B030BD9C7E0008F0B5C64600B50700DC
:1021D0000D009046002402E02E0006E00134032C9E
:1021E00011D8002DF8D0A300EE5843461A5D210007
:1021F0003800FFF7CFFF002EF0D03200210038006A
:10220000FFF798FEEAE780BCB846F0BDF0B5D646C9
:102210004F464646C0B582B000AF0600884691469C
:1022200013880A000021002004F0B8FB01003A1DC9
:102230003000FFF7B1FC4B461B88424600210020CE
:1022400004F0ACFB050003000833DB08DB006A4642
:10225000D31A9D46EA46002352461370541C431E6F
:1022600003E000222270013B0134002BF9DA4B46D7
:102270001A884146504604F0C5FB29005144326893
:102280005046FEF7A5FB3000BD4602B0E0BCBA46A2
:10229000B146A846F0BD000030B587B06B469D1D25
:1022A000DA800122FEF7FAFB040007492A0003A89E
:1022B000FFF7ACFF2000343003A9FFF7B3FA03A8FF
:1022C000FEF72BFD07B030BD9C7E0008F0B5C6467A
:1022D00000B507000D009046002402E02E0006E045
:1022E0000134032C12D8002DF8D0A300EE5863005F
:1022F00042469A5A21003800FFF7CEFF002EEFD059
:10230000320021003800FFF715FEE9E780BCB8462F
:10231000F0BD0000F0B5D6464F464646C0B5CEB03B
:10232000050088460468022C00D173E00FDC002C05
:1023300019D0012C00D078E0080001F05BF905907D
:10234000A823E85805AA0021FFF73EFF5AE0032C16
:102350006BD1080001F09FF90200A823E858002182
:10236000FFF7B4FF4EE0080001F070F98246260046
:1023700010E0A8239946E8582F4BB700FA583100CF
:10238000FFF79EFD4B46E8585346FA583100FFF7D9
:10239000CFFC0136022EECDD414602A801F04CF9DB
:1023A0002EE0A300984602AB4246D35899460A2134
:1023B0001800FDF7B3FE8246204E8C270A214846BE
:1023C000FDF732FF009153463200790005A804F072
:1023D000E5FA1C37E859E61C194B4246D258310041
:1023E000FFF76EFDEF5905A94BA8FFF7DDFD4BAADE
:1023F00031003800FFF72AFA4BA8FEF78EFC0134B3
:10240000022CCEDD01236B774EB0E0BCBA46B1465C
:10241000A846F0BD080001F0CBF80590A823E858C5
:1024200005AA0021FFF7D0FEECE7064B064A074855
:102430005D2104F03BF8C04628800008B87E000803
:102440001C800008C47E0008CC7E0008F87E0008CE
:1024500010B50400074B036018330361064B03619A
:102460001430FEF778FC054B2361200001F074F86E
:10247000200010BD148E0008C0800008787F00087E
:1024800008B4024B9C46103808BC60475124000831
:10249000F0B59BB0040017001E00209AFEF730FB39
:1024A00000258423E554230084335D60244B23609E
:1024B0008C23E7500433E65421001031249B009311
:1024C000239B229A03A8FEF7D5FE2000943015AB7B
:1024D00003AA0C21FFF728FB03A8FFF7B9FFA023ED
:1024E000184AE250A422A5542200A4325560AC221E
:1024F000A5542200AC325560219A1168B422A5542B
:102500002200B4325160104AE2500C22002116A879
:1025100004F005FB0822002116A804F000FB199521
:1025200016940A4B19930A4B189316A92000FEF72C
:102530008CFB16A8FEF7ECF920001BB0F0BDC046DE
:10254000BC7F0008787F00085880000889200008B8
:10255000790F0008F0B5C64600B58AB004000E0039
:1025600017009846BC2003F061FF050021001031E0
:102570002300A4330693843B07930E4B0893230058
:10258000983309939C34049409AB039308AB0293EA
:1025900007AB019306AB009343463A00FFF778FF81
:1025A00035602B685B680121280098470AB080BC21
:1025B000B846F0BD04000020F0B59BB00400170041
:1025C0001E00209AFEF7BCFA00256423E554A56698
:1025D000234B2360E7667023E65421001031249BCF
:1025E0000093239B229A03A8FEF744FE2000743038
:1025F00015AB03AA0821FFF797FA03A8FFF728FFF6
:102600008023184AE2508422A55422008432556067
:102610008C22A55422008C325560219A1168942294
:10262000A5542200943251600F4AE2500C2200213E
:1026300016A804F074FA0822002116A804F06FFA14
:1026400019951694094B1993094B189316A9200054
:10265000FEF727FB16A8FEF75BF920001BB0F0BDC4
:10266000EC7F0008787F000858800008FD200008F3
:102670000B110008F0B5C64600B58AB004000E0084
:10268000170098469C2003F0D1FE05002100103170
:102690002300A4330693843B07930E4B0893230037
:1026A000983309939C34049409AB039308AB0293C9
:1026B00007AB019306AB009343463A00FFF77CFF5C
:1026C00035602B685B680121280098470AB080BC00
:1026D000B846F0BD0400002070B504000D0003688A
:1026E000002B0ED034DB013B022B31D8A823C0587D
:1026F000002810D00368DB689847A8230022E25026
:1027000009E0A823C058002805D00368DB68984773
:10271000A8230022E250EA17920FAD1803232B40A2
:102720009B1A1BB259420020225E914216DD0433EF
:102730002360022B31D019DC002B21D0012B34D1A6
:102740001D4A2100A83101232000FFF793FF1EE05E
:102750001A4B1B4A1B48742103F0A8FE9B18DA177A
:10276000920F9B1803210B409B1AE1E7032B1CD10E
:10277000154A2100A83101232000FFF77BFF06E066
:10278000124A2100A83100232000FFF7E3FE2000B9
:10279000FFF76EFA0123237770BD0D4A2100A8319F
:1027A00001232000FFF766FFF1E7044B044A0548C8
:1027B000932103F07BFEC0465C7F0008C47E0008C6
:1027C0003C7F0008F87E0008687F00088C8F0008B6
:1027D000647F0008F0B589B004000027060080C6B9
:1027E00086604660C7600300103343610361876100
:1027F00007774777FF22FF21FF2003F099FD206232
:10280000FF22FF21FF2003F093FD606222002032AF
:1028100020002830310000F049FE20005430310003
:10282000FEF796F800220021002003F081FD982396
:10283000E0501A4D23009C332A0003CA03C3AA6840
:10284000A423E2500433E750154B0393FF22FF21EA
:10285000FF2003F06DFD049000220021002003F012
:1028600067FD059006AB0C351A0003CD03C22500A9
:10287000AC35009304AB03AA31002800FEF7B8F989
:1028800000212000FFF728FF0221280000F037FE7A
:102890002000FFF7EDF9200009B0F0BD54790008E1
:1028A0000400002010B50400FFF7D2FD48212000ED
:1028B00003F0B8FD200010BD08B4024B9C46103850
:1028C00008BC6047A528000810B582B00400016A62
:1028D0000422684604F0FBF9636F89229200944653
:1028E000634459680431042201A804F0F0F920007F
:1028F00084306946FFF76FF802B010BD10B582B0A2
:102900000400016A0422684604F0E1F99423E358C4
:10291000D12292009446634459680431042201A8EC
:1029200004F0D5F92000A4306946FFF754F802B04E
:1029300010BDF0B5C64600B582B004000D000023FE
:102940009846002722E00136012E19D87B009B19FA
:10295000DB001A59002AF6D07B009B19DB00E31834
:102960005B68002BEFD06B8843449BB25068428871
:102970009B1A002269460A804B8000F0DFFCE2E7E8
:1029800039002000FEF755FB80440137032F01D8A2
:102990000026D9E700239846002723E00136032EBE
:1029A0001AD87300DB19DB001A59002AF6D073001D
:1029B000DB19DB00E3185B68002BEFD02B88434466
:1029C0009BB2506802889B1A6A4693800023D3808A
:1029D00001A900F0B3FCE1E739002000FEF7F2FAAC
:1029E00080440137012F01D80026D8E702B080BC0F
:1029F000B846F0BD30B583B0040005002435019021
:102A000001A92800FEF7F1FD216A2800FFF791FFD8
:102A10002000103000F08FF903B030BD30B583B026
:102A2000040005002435019001A92800FEF7DDFD12
:102A3000216A2800FFF77DFF2000FFF745FF2000F7
:102A4000803000F055FA2000103000F074F903B027
:102A500030BDF0B5C64600B582B004000D000023BD
:102A60009846002722E00136012E19D87B009B19D9
:102A7000DB001A59002AF6D07B009B19DB00E31813
:102A80005B68002BEFD06B8843449BB25068428850
:102A90009B1A002269460A804B8000F04FFCE2E757
:102AA00039002000FEF7C5F980440137052F01D811
:102AB0000026D9E700239846002723E00136052E9B
:102AC0001AD87300DB19DB001A59002AF6D07300FC
:102AD000DB19DB00E3185B68002BEFD02B88434445
:102AE0009BB2506802889B1A6A4693800023D38069
:102AF00001A900F023FCE1E739002000FEF762F9AC
:102B000080440137012F01D80026D8E702B080BCED
:102B1000B846F0BD30B583B00400050024350190FF
:102B200001A92800FEF7A3FC216A2800FFF791FF06
:102B30002000103000F0FFF803B030BD30B583B096
:102B4000040005002435019001A92800FEF78FFC40
:102B5000216A2800FFF77DFF2000FFF7CFFE20004D
:102B6000A03000F0C5F92000103000F0E4F803B008
:102B700030BD10B50400016001F0BAF860602000BB
:102B800010BD10B5040001F0B3F802006368C31A69
:102B900021689942804140428B4200D9626010BD59
:102BA00010B5012800D010BD064B9942FBD1064C50
:102BB0002000FDF7C9FC054A0549200003F02BFC65
:102BC000F1E7C046FFFF0000980000200000002051
:102BD000E52C000810B5054C2000FDF795FD200000
:102BE000FDF712FC2000FDF713FDF4E7980000202C
:102BF00010B50248FDF738FC10BDC0469800002013
:102C000010B50348FDF73AFE00F0C0FE10BDC04607
:102C10009800002010B50D4B5B69DB0704D40B4B0B
:102C20005B699B0709D410BD012109484942FDF7A2
:102C300035FC012001F0C8FAF5E705480121FDF750
:102C40002DFC022001F0C0FAEDE7C046000401406F
:102C50009800002010B50400074B0360183303618F
:102C6000064B03611430FDF7FCFE054B2361200089
:102C700000F072FC200010BDE88D000858800008AC
:102C8000787F000808B4024B9C46103808BC6047A7
:102C9000552C000810B50400FFF7DCFF2C212000A4
:102CA00003F0C0FB200010BD08B4024B9C46103856
:102CB00008BC6047952C000810B50400AC30FFF745
:102CC000C7FB20005430FEF75DFA20002830FFF7E4
:102CD000C1FF20001030FEF73AFA201DFEF737FA48
:102CE000200010BD10B50400D7239B00C018FFF7CB
:102CF000E3FF200010BD000010B502490120FFF7DE
:102D00004FFF10BDFFFF000001717047014B0360D2
:102D100001717047408000080079704770B5080065
:102D20001500FFF7F9FF04002800FFF7F5FF8442C4
:102D30008041404270BD70B50500046804E0A068A1
:102D400003681B6898472468A542F8D170BD002924
:102D500004DC0BE002681268026019004B1E0029B7
:102D6000F8D1704702685268026019004B1C0029B4
:102D7000F8D1F6E70300002001E01B6801308B4228
:102D8000FBD1704710B50022FFF7F4FF10BDF0B57E
:102D900085B00600170001AA1370FFF7F3FF0500C6
:102DA00000E02500002D13DD6C10039600222100A9
:102DB00003A8FFF7CCFF039B3A68996801A8FFF7C7
:102DC000ADFF0028EDD0039E36682C1B013CE8E7E0
:102DD000300005B0F0BD10B504004168002903D0F3
:102DE00000680122FEF7ABF9200010BD70B50400A9
:102DF0000D008368013B8360080003F02FFB012274
:102E000029002000FEF79BF970BD10B50C68FFF794
:102E1000EDFF200010BD10B5FFF7F7FF10BD00005B
:102E200010B5084B8B4205D348004018800003F0D2
:102E3000FDFA10BD044B994201D903F017FB03F0D2
:102E400012FBC046AAAAAA0A5555551570B582B0FC
:102E500005000E0000220121FFF7E2FF04000095AB
:102E6000019033688360002301936846FFF7B3FF46
:102E7000200002B070BD70B504000E001100FFF715
:102E8000E5FF0500310003F0E3FAA3680133A36016
:102E9000280070BD30B583B004000D0000680091BB
:102EA00000236A462100FFF772FF0100019501AA85
:102EB0002000FFF7E0FF03B030BD70B505000C0047
:102EC00009688E68FFF7A7FF31002800FFF7E2FFCF
:102ED000206070BD10B513000A1A511006D01900F9
:102EE00003F0FCFD43425841C0B210BD0120FCE795
:102EF000F0B583B005008468002C17D00369002B5F
:102F000016D0200000F0DCF9201D00F0D9F92E6960
:102F1000002E11D00622A35E0421625E0220215EF3
:102F20000020205E3468009403F0F6F803B0F0BD92
:102F30008369002BE5D1F9E7201D21000831214AE2
:102F4000FFF7C8FF002806D0211D1F4A2000FFF709
:102F5000C1FF00281AD1AE690622A35E0421625E79
:102F60000220215E0027E05F7668009603F01EF9DC
:102F7000AD690622A35E0421625E0220215E00206C
:102F8000205E2C68009403F0C7F8CFE70F4B1B6856
:102F9000DB0708D5AB6958680D4B1B6898420DD00C
:102FA00003F0CAF9E4E7FF22FF21FF2003F0C0F994
:102FB000074B1860054B01221A60EBE703F0B4F9E8
:102FC000D6E7C0466480000868800008000500203D
:102FD0000405002010B50400034B08C0FDF741FDB7
:102FE000024B2360200010BD58800008787F000845
:102FF00010B50400054B08C0FDF733FD044B2360FA
:103000001C21200003F00EFA200010BD588000089B
:10301000787F000810B50400080000F069F96063CB
:1030200010BD0000F0B5C64600B504000D00080054
:1030300000F030F9002802D100232B806B802B1D7B
:103040009846180000F026F9002804D11A49404695
:10305000042203F03CFE236B1B68002B0ED12B00D7
:103060002E1D20003430290006E01A8807887A4394
:103070000A800233023002319E42F6D1236B1B6874
:10308000002B0FD12B1D2F000837200034301900E2
:1030900006E01A88048862430A8002330230023153
:1030A0009F42F6D1280000F00BF9404600F008F9E5
:1030B00080BCB846F0BDC0466480000882B0020003
:1030C000416A0B00581E8341D8B200290BD05368C7
:1030D000002B0AD001AB01211970D369002B09D054
:1030E000012001AB587002B0704701AB00221A708A
:1030F0000020F6E70020F4E710B542680368D21A12
:10310000914200D210BD014803F0B6F96C8000086E
:10311000F0B5DE4657464E464546E0B589B0040058
:103120000430FFF7CBFF00282FD02369002B29D0D4
:10313000236B002B30D0A1682000FFF76BFF216AC2
:103140002000FFF76FFF206A00F049F9069006ABF8
:1031500000229A5E3421635E9A4216DB06AB02229D
:103160009A5E3621635E9A420FDB236A994605AD6B
:1031700004221900280003F0AAFD0022AB5E03938D
:1031800000252EE0A369002BD2D109B0F0BCBB46CC
:10319000B246A946A046F0BD0133079320002C306B
:1031A00007A9FEF745FCC6E75146FFF7A5FF4346D2
:1031B0005246985C2369A2681B681268009232002C
:1031C000390003F027F80135ADB200210023F318D0
:1031D00005AA538000293AD1A38EDB191BB205AA98
:1031E000138005AB02269E5F4B4606229B5E9E42E5
:1031F000CBDAA06A4368026890469B1AAA469D42B1
:10320000C3D205AB0027DF5F3422A35EDB194A4639
:103210000421525E934216DCA3699B46002BC3D067
:103220005146FFF769FF43465246985CA2685B46E9
:103230001B68126801925A465268009232003900A7
:1032400003F027F8BFE73622A35E0121BFE7039B07
:10325000C5E7000010B50400034B08C0FDF77BFD77
:10326000024B2360200010BDC0800008787F00085A
:1032700010B50400054B08C0FDF76DFD044B23603D
:103280003821200003F0CEF8200010BDC0800008D7
:10329000787F00080022835E002B09DB0221425E5A
:1032A000002A07DB7F2B07DC9F2A07DC012000E0D8
:1032B000002070470020FCE70020FAE70020F8E734
:1032C00010B582B004000949042201A803F0FFFCF4
:1032D0000022A35E7F2B01DD7F2323800222A35ED9
:1032E0009F2B01DD9F23638002B010BD6480000826
:1032F00000B585B00168002910D0684602F0D9FDFC
:103300006B465A7A03AB1A806A46927A5A8003AAAD
:1033100053881B041088184305B000BD014B1B687F
:103320000393F4E76879000810B50400FFF7B2FFD3
:10333000002802D0201DFFF7ADFF10BDF8B5060034
:103340000C00FFF7F1FF00281BD03300371D2500CC
:103350003000210006E01A880C881219028002331E
:10336000023102309F42F6D1331D0836190006E0C3
:103370001A88288812180A800233023502319E42C8
:10338000F6D1F8BD70B505000C00FFF7CDFF0028A1
:103390000DD02B00281D2100040006E01A880D889E
:1033A000521922800233023102349842F6D170BDA4
:1033B00070B505000C00FFF7B7FF00280ED02B1DDD
:1033C0002800083021001C0006E01A880D885219D8
:1033D00022800233023102349842F6D170BD00B52A
:1033E00083B001000430FDF780FD01AA01905388ED
:1033F0001B041088184303B000BD30B583B004002F
:103400000D00FFF791FF002801D103B030BD21006E
:103410002800FDF76AFD019004222900200003F036
:1034200056FC231D200008301C0001A906E01A8864
:103430000D88521922800233023102349842F6D1AB
:10344000E3E710B5030010301B691B68984710BDF7
:1034500010B50A4B1B68DB070DD4094C094904223F
:10346000200003F034FC0849201D042203F02FFC47
:10347000024B01221A60024810BDC0460805002018
:103480000C050020688000086480000870B5040006
:103490000E0001230370082002F0C8FF0500082277
:1034A000310003F014FC6560200070BD70B50400AD
:1034B000150000F049F8FFF7CBFF0100094B23612D
:1034C00020001430FFF7E2FF002323772362242239
:1034D000A354A562044B2361044B2360183323617A
:1034E000200070BD787F000858800008E88D000833
:1034F00010B5030010301B691B68984710BD70B5EC
:1035000004000D00FFF708FCA84200D170BD29009F
:103510002000FFF7F9FBA06821000C31FFF7CDFC7C
:10352000F4E7000070B504000D001100FFF7EEFB9A
:10353000044B2360A56021002800FFF7ABFCE0608E
:10354000200070BD408E000810B504000022FFF777
:10355000E9FF200010BD000010B50400044B03601B
:103560008068E168FFF757FC024B2360200010BD24
:10357000408E00084080000870B504000D0080688F
:10358000E168FFF748FCA56021002800FFF782FCF6
:10359000E06070BD70B5040008008D68FFF7BCFBEB
:1035A000020029002000FFF7BDFF200070BD0000D1
:1035B00082B0002306E0817C194101220A4069465D
:1035C000CA540133032BF6D901AB009A01925A7801
:1035D0001202187810439A781204054908401043E3
:1035E000DB781B060002000A184302B07047C04691
:1035F000FFFF00FF82B0002306E0018A194101228B
:103600000A406946CA540133032BF6D901AB009A2C
:1036100001925A781202187810439A7812040549D8
:1036200008401043DB781B060002000A184302B072
:103630007047C046FFFF00FF0B685A05520D02603D
:10364000DA02920D42605B0D836070470430704770
:1036500030B5CB78032B16D0332B17D0022B00D0EC
:1036600030BD4B68020008C20C0008340B00143354
:103670001B1B9B1002E020CC20C2013B002BFADC7C
:103680000B7F8374ECE78B880382E9E71430043105
:103690000CC90CC0E4E7143070470000F0B5CE460A
:1036A000474680B583B081460E0090461F00002437
:1036B00000E00134BC4259D23568002D06D14346A2
:1036C0001B5DFE2BF5D101353560F2E7012D18D0D9
:1036D00073689D4221DA5B1B00933A1B019293426F
:1036E00019DC6B461D6830000830336842461119FA
:1036F000C0182A0003F0EBFA33685B1933606419D1
:10370000D8E743461B5D72191372013404337360AA
:1037100001353560CEE701ABE4E700223260A44614
:10372000C4444246105D32000932013B002105E0ED
:1037300013784B401349C95C01322B005D1E002BEE
:10374000F6D1884201D00134B4E733000833F27A6D
:10375000182A07D04A4613604B4662465A603F1B00
:103760009F6008E0F4320021B154F3E700234A4699
:10377000136053609360484603B0C0BCB946B0467E
:10378000F0BDC046508E000800B583B0094A5169AB
:10379000012319435161526913400193019B002297
:1037A00000210B2000F008FB0B2000F009FB03B008
:1037B00000BDC04600100240F0B589B014220021BF
:1037C00003A803F0ACF92B4B5A698021C9030A43C3
:1037D0005A615A690A400092009A5A698021890206
:1037E0000A435A615A690A400192019A5A69802132
:1037F000C9020A435A615B690B400293029B03248E
:103800000394049403A91C4800F012FC9F231B029C
:1038100003930494002505959027FF0503A938001C
:1038200000F006FC80235B000393EF3B04930595B7
:10383000124E03A9300000F0FBFB039488235B03C6
:1038400004930223059303A9380000F0F1FBFF2342
:1038500003930494059503A9300000F0E9FB0022CE
:103860000321052000F0A8FA052000F0A9FA09B00C
:10387000F0BDC0460010024000140048000400489B
:1038800010B500F03BFA10BD10B50A0040B2012897
:103890000AD002280ED0002800D010BD9030102190
:1038A000C00500F089FCF8E790204021C00500F039
:1038B00083FCF2E790200249C00500F07DFCECE7B4
:1038C000FFFF000070B505000C009026F6050022F1
:1038D0001021300000F070FC0123A2B205485B42C9
:1038E000290001F061F901221021300000F064FC90
:1038F00070BDC0461805002010B586B01422002106
:1039000001A803F00CF9402301933F3B029303937A
:103910009024E40501A9200000F08AFB1023019304
:1039200001A9200000F084FB06B010BD00B583B0F3
:10393000154B1B68002B01D003B000BD023301936F
:10394000013B009300230022A021802001F0E0FE33
:103950000D4B186001F002FF01F042FF002001F062
:1039600059FF002001F0D4FF062002F00DF80420DA
:1039700001F080FF002001F06EFFFF2001F0A1FFA9
:10398000012001F059FFD7E71405002010B5064BC0
:103990001A7851424A41D2B21A7080214900034834
:1039A00000F00AFC10BDC0460800002000040048DA
:1039B00072B6FEE700B591B03022002104A803F0F2
:1039C000AEF810220021684603F0A9F80223049300
:1039D000012207920F3208920C93E0235B030E93AF
:1039E00004A800F0FFFB00280ED107230093053B3D
:1039F00001930023029303930121684600F078FEAF
:103A0000002803D111B000BDFFF7D2FFFFF7D0FFB0
:103A100010B500F051F9FFF7CDFFFFF7CDFEFFF72E
:103A2000B3FE00F0ABF800F009F8FFF765FFFFF711
:103A30007DFFFFF7CFF8002010BD000010B5114842
:103A4000114B036082235B00436000238360E0220C
:103A5000D200C26003614361802292008261C3612F
:103A6000036243628362FA3AFF3AC2620363083335
:103A7000436301F017F8002800D110BDFFF798FF4D
:103A8000FBE7C046180500200030014010B588B0A3
:103A900004001422002103A803F041F82268124B0D
:103AA0009A4201D008B010BD104B9A69802149019B
:103AB0000A439A619A690A400192019A5A698021DF
:103AC00089020A435A615B690B400293029BA0235F
:103AD00003939E3B049301330693902003A9C005F2
:103AE00000F0A6FADEE7C0460030014000100240B8
:103AF00082B00A4B996901221143996199690A4080
:103B00000092009ADA69802149050A43DA61DB698B
:103B10000B400193019B02B07047C0460010024069
:103B2000FEE7FEE77047704710B500F0D5F810BD0E
:103B300010B5024800F026FA10BDC0467C050020F2
:103B400010B5024801F092F910BDC046C005002032
:103B500072B6BFF34F8FBFF36F8F704762B6704777
:103B600010B50400FFF7F4FF200010BD10B50400ED
:103B7000FFF7F4FF200010BD7047000010B50D489E
:103B80000D4B0360E1231B02436000238360C3608D
:103B900003610C2242618361C361036204324262A9
:103BA000C36301F0EDFC002800D110BDFFF700FF5A
:103BB000FBE7C046C00500200044004010B588B0B7
:103BC00004001422002103A802F0A9FF2268224B5E
:103BD0009A4201D008B010BD204BD96980229202D0
:103BE0001143D961D9691140019101995969114372
:103BF00059615B6913400293029B0C2303930A3BB8
:103C00000493013B0593032206920793902003A996
:103C1000C00500F00DFA1248124B03600023436008
:103C200083608022C26003614361836180235B0102
:103C3000C36100F0FDF800280BD1094B23675C62DB
:103C4000002200211C2000F0B7F81C2000F0B8F87A
:103C5000C0E7FFF7ADFEF0E700440040001002406F
:103C60007C0500205800024010B504000F4B197865
:103C7000FA208000FCF752FA01000D4B1868FCF79F
:103C80004DFA00F0A9F800280DD1032C01D901202C
:103C90000AE0013000222100404200F08DF8054B7F
:103CA0001C60002000E0012010BDC0461000002074
:103CB0000C0000201400002010B5064A13681021E3
:103CC0000B4313600320FFF7CFFFFFF711FF002026
:103CD00010BDC04600200240034A1168034B1B7808
:103CE0005B1813607047C046440600201000002097
:103CF000014B18687047C0464406002070B50400A8
:103D0000FFF7F6FF0500631C02D0044B1B78E41894
:103D1000FFF7EEFF401BA042FAD370BD1000002059
:103D200070B5002811DB8308134DC0339B005C592C
:103D300003221040C000FC3216008640B4438901C3
:103D40000A40824022435A5170BD0F230340083B72
:103D50009B0806339B00094A944663445C6803222F
:103D60001040C000FC3215008540AC4389010A4078
:103D7000824022435A60E7E700E100E000ED00E006
:103D8000013880235B0498420FD2094A50600948E9
:103D9000036A1B021B0AC02109060B4303620023AE
:103DA000936007331360002070470120FCE7C04692
:103DB00010E000E000ED00E010B5FFF7B1FF10BD2E
:103DC000002805DB1F22024001239340014A1360B3
:103DD0007047C04600E100E010B5FFF7D1FF10BD0D
:103DE00070B5066CC56B0124B4406C6004686360F8
:103DF0004368102B04D0036899600368DA6070BDD3
:103E000003689A600368D960F9E7000010B5040000
:103E10000068054B9C4660441421FCF77FF9800044
:103E20002064024BE36310BDF8FFFDBF00000240B9
:103E300070B5041E20D021250223435501680A686D
:103E40000E4B1A40436880680343E06803432069CF
:103E5000034360690343A0690343E06903431343D9
:103E60000B602000FFF7D2FF0023A36301226255FD
:103E70001F32A354002070BD0120FCE70FC0FFFFDC
:103E800070B504002020205C012832D020200125BC
:103E900025540130205C012804D020230022E25464
:103EA000022070BD2030013525540020A063256814
:103EB00028680126B04328602000FFF791FFE36ADD
:103EC000002B0BD0226813680E210B43136022686D
:103ED000136801210B4313600020E2E72268136896
:103EE0000A210B4313602268136806398B43136061
:103EF000EDE70220D5E710B52123C35C022B06D0E5
:103F0000042383631C330022C254012010BD0268C5
:103F100013680E218B43136001680A6801239A43DA
:103F20000A60016CC26B1C008C40546021228354D7
:103F30001F330022C2540020E8E710B52123C35CE0
:103F4000022B03D004238363012010BD0268136891
:103F50000E218B43136001680A6801239A430A60AB
:103F6000016CC26B1C008C405460212283541F33AF
:103F70000022C254436B002B02D098470020E4E794
:103F80000020E2E770B5C36B1A6804682568016C0D
:103F900004238B401A4212D06B0710D523689B066E
:103FA00003D42368042293432360016CC26B04236F
:103FB0008B405360C36A002B00D0984770BD02232A
:103FC0008B401A4218D0AB0716D523689B0606D43F
:103FD00023680A22934323602123093AC254016CC7
:103FE000C26B02238B40536020230022C254836A99
:103FF000002BE3D09847E1E708238B401A42DDD03D
:104000002D07DBD523680E2293432360016CC26B1E
:1040100001231C008C4054608363212283541F338E
:104020000022C254036B002BC8D09847C6E700009B
:10403000F0B583B0002356E086685F000324BC40DF
:10404000A643CC68BC4034438460446894434E68C3
:104050003609012232409A402243426053E0DE0892
:104060000836B600375805321A4092000F249440A3
:10407000A7430C69944022003A43325056E003268D
:1040800000E00026A64034003C4302329200444E39
:104090009451444A1768EA433E00AE434C68E40337
:1040A00001D53E002E433F4C266067683E00164017
:1040B0004C68A40301D53E002E433A4C6660A768C5
:1040C0003E0016404C68E40201D53E002E43354CBC
:1040D000A660E66832404C68A40201D52A0032434B
:1040E000304CE26001330C682200DA4056D00122E5
:1040F0009A40250015401442F4D04E680324344001
:10410000013C012C98D94C6803222240032A08D094
:10411000C4685E000322B24094438A68B2402243DE
:10412000C2604C6803222240022A98D004685E00D4
:1041300003221700B740BC434F683A40B2402243C5
:1041400002604C68C02292021442CBD0164CA66981
:1041500001221643A661A46922400192019A9A089D
:10416000941CA4000E4EA75903241C40A4000F2643
:10417000A640B7439026F605B04282D00B4EB0421F
:1041800008D00B4EB04207D00A4EB04200D176E7BD
:10419000052677E7012675E7022673E703B0F0BD31
:1041A00000000140000401400010024000040048EB
:1041B00000080048000C0048002A01D081617047C7
:1041C0008162FCE77047000010B5054B5B6918423F
:1041D00000D110BD024B5861FFF7F4FFF9E7C0466C
:1041E0000004014070B582B0041E00D12EE20368C5
:1041F000DB0726D5AE4B5A680C231340042B18D08E
:10420000AB4B5A680C231340082B0ED06368012B6C
:104210003CD0002B51D1A64B1A68A6490A401A601F
:104220001A68A5490A401A6036E0A14B5B68DB03B7
:10423000ECD59F4B1B689B0303D56368002B00D113
:1042400007E223689B0772D5994B5B680C221A42E0
:104250005DD0974B5A680C231340082B53D0E3686A
:10426000002B00D185E0924A136801210B431360B3
:10427000FFF73EFD05008E4B1B689B0770D4FFF7D0
:1042800037FD401B0228F6D90320E0E1884A116877
:1042900080235B020B4313606368002B25D0FFF77C
:1042A00027FD0500824B1B689B03CAD4FFF720FD46
:1042B000401B6428F6D90320C9E1052B09D07C4BAB
:1042C0001A687C490A401A601A687B490A401A60D9
:1042D000E2E7774B19688022D2020A431A60196814
:1042E000802252020A431A60D6E7FFF701FD05005B
:1042F0006F4B1B689B03A4D5FFF7FAFC401B642897
:10430000F6D90320A3E16A4B5B68DB03A7D4684BB3
:104310001B689B0703D5E368012B00D09BE1644930
:104320000B68F82293432269D20013430B60236881
:104330001B0744D5E369002B2ED05D4A536A012147
:104340000B435362FFF7D4FC0500594B5B6A9B0794
:1043500035D4FFF7CDFC401B0228F6D9032076E1C7
:1043600053490B68F82293432269D20013430B6030
:10437000DDE74F4A136801218B431360FFF7B8FC58
:1043800005004B4B1B689B07D1D5FFF7B1FC401BC9
:104390000228F6D903205AE1454A536A01218B438A
:1043A0005362FFF7A5FC0500414B5B6A9B0706D5EE
:1043B000FFF79EFC401B0228F6D9032047E1236843
:1043C0005B0700D480E03A4BDB69DB001DD4384B3F
:1043D000DA69802149050A43DA61DB690B40019300
:1043E000019B0125354B1B68DB0510D5A368012B0C
:1043F00021D0002B36D12E4B1A6A01218A431A6232
:104400001A6A03318A431A621AE00025EAE72B4A46
:10441000116880235B000B431360FFF769FC060003
:10442000264B1B68DB05E1D4FFF762FC801B642888
:10443000F6D903200BE11E4A136A01210B431362D4
:10444000A368002B24D0FFF753FC0600184B1B6A0F
:104450009B0737D4FFF74CFC801B194B9842F5D9CA
:104460000320F4E0052B09D0114B1A6A01218A437D
:104470001A621A6A03318A431A62E1E70C4B1A6A1C
:1044800004210A431A621A6A03390A431A62D7E7F7
:10449000FFF72EFC0600064B1B6A9B0712D5FFF7A1
:1044A00027FC801B064B9842F5D90320CFE0C0467D
:1044B00000100240FFFFFEFFFFFFFBFF0070004007
:1044C00088130000012D33D02368DB0610D5636903
:1044D000012B33D0053351D1654A536B04218B43F3
:1044E0005363536BF4318B43A169C9000B4353638E
:1044F000236A002B00D1B0E05D4A51680C220A40CB
:10450000082A00D18AE0022B4FD0594A1368594932
:104510000B401360FFF7ECFB0400554B1B689B013D
:104520007AD5FFF7E5FB001B0228F6D903208EE0C1
:104530004F4AD36950490B40D361C5E74C4B5A6B86
:1045400004210A435A635A6B03390A435A63FFF73B
:10455000CFFB0500464B5B6B9B0706D4FFF7C8FB00
:10456000401B0228F6D9032071E041494B6BF82229
:104570009343A269D20013434B63B9E73C4B5A6B98
:1045800004210A435A635A6B03398A435A63FFF77B
:10459000AFFB0500364B5B6B9B07A9D5FFF7A8FB6C
:1045A000401B0228F6D9032051E0314A13683149F3
:1045B0000B401360FFF79CFB05002D4B1B689B0114
:1045C00006D5FFF795FB401B0228F6D903203EE0F5
:1045D000274BDA6A0F218A43E16A0A43DA625A6892
:1045E00026490A40A16A606A01430A435A60196871
:1045F000802252040A431A60FFF77AFB04001C4B26
:104600001B689B0106D4FFF773FB001B0228F6D939
:1046100003201CE000201AE0002018E0012B1ED02F
:10462000134B5A68D86A80235B021340616A8B423D
:1046300017D10F230340E16A8B4214D1F0239B036F
:104640001A40A36A9A4210D1002000E0012002B073
:1046500070BD0120FBE70120F9E70020F7E701200A
:10466000F5E70120F3E70120F1E70120EFE7C0467D
:1046700000100240FFFFFFFEFFFFFFEFFFFFC2FF42
:1046800030B589B004AA164B31CB31C21B68136018
:104690006A46144B31CB31C21B681360124B5A6807
:1046A0000C231340082B02D0104809B030BD910CE8
:1046B0000733194004A8445C0B49C96A0B4069469A
:1046C000C95CD20304D50948FBF728FD6043ECE739
:1046D0006201121B93019B1ADB001B191802E4E70D
:1046E000688F00087C8F00080010024000127A00DA
:1046F00070B504000D00002800D17EE0434B1A681D
:10470000012313408B420AD240490B680122934394
:104710002B430B600B681A40AA4200D06FE023685D
:104720009A070ED55B0705D5394A5168E023DB00AF
:104730000B435360364A5368F0218B43A1680B4307
:1047400053602368DB072DD56368012B1ED0022B35
:1047500022D02F4A1268920753D52D494A68032068
:10476000824313434B60FFF7C3FA0600284B5B6894
:104770000C221A4063689B009A4213D0FFF7B8FAE4
:10478000801B244B9842F1D9032035E0204A12685F
:104790009203E2D401202FE01D4A12689201DCD47A
:1047A000012029E0194B1A6801231340AB4209D9B3
:1047B00016490B68012293432B430B600B681A4088
:1047C000AA4220D123685B0706D5114A53681249D3
:1047D0000B40E1680B435360FFF752FF0C4B5A68E4
:1047E00012090F2313400D4AD35CD8400C4B1860BC
:1047F0000320FFF739FA002070BD0120FCE70120FB
:10480000FAE70120F8E70120F6E7C0460020024061
:104810000010024088130000FFF8FFFF588F0008C7
:104820000C000020014B18687047C0460C000020A7
:1048300010B5FFF7F7FF044B5A68120A072313401D
:10484000024AD35CD84010BD00100240508F0008CF
:10485000F0B5D6464F464646C0B582B006000D00BC
:1048600090461F00FFF744FA0A9B181A8146B94484
:10487000FFF73EFA82462C4B1B685B011B0D4A4634
:104880005343019333689C682C40641B63425C4132
:10489000444542D07B1CF5D0FFF72AFA5346C01A94
:1048A000484508D2019A002A00D04A46019B013BA4
:1048B00001939146E6E732685368E0218B435360E9
:1048C000726882235B009A420CD0B26A80239B01FB
:1048D0009A4216D05D230122F254013B0022F25489
:1048E00003201BE0B36880221202934203D080228F
:1048F000D2009342E9D13268136840218B431360A0
:10490000E3E73268136809490B40136032681168A5
:1049100080239B010B431360DCE7002002B0E0BC66
:10492000BA46B146A846F0BD0C000020FFDFFFFFED
:10493000F0B5DE4657464E464546E0B583B0070023
:104940000D00160098466B460022DA70FFF7D0F98A
:104950000C9B181A40448146FFF7CAF982463B680F
:104960009B46344B1B689A00D218D3009B1A1B0D30
:104970004A465343019302E04346013311D13B6859
:104980009C682C40B4424DD0C023DB009D42F3D143
:10499000002EF1D15B461B7BDBB26A46D370D37825
:1049A000EAE7FFF7A5F95346C01A484508D2019A2D
:1049B000002A00D04A46019B013B01939146DEE765
:1049C0003A685368E0218B4353607A6882235B0026
:1049D0009A420CD0BA6A80239B019A4216D05D237A
:1049E0000122FA54013B0022FA5403201BE0BB6869
:1049F00080221202934203D08022D2009342E9D156
:104A00003A68136840218B431360E3E73A68136800
:104A100009490B4013603A68116880239B010B43DE
:104A20001360DCE7002003B0F0BCBB46B246A946E9
:104A3000A046F0BD0C000020FFDFFFFF70B582B084
:104A400004000D001600C02100922B000022490135
:104A5000FFF76EFF002818D100962B00002280215E
:104A60002000FFF7F5FE002816D1C02100962B008C
:104A70000022C9002000FFF75BFF00280AD0236E48
:104A8000202213432366032004E0236E20221343D5
:104A90002366032002B070BD236E202213432366D9
:104AA0000320F7E770B5041E00D178E0436A002BBD
:104AB00007D142680533FF339A4205D00023C36112
:104AC00002E00023036143610023A3625D33E35CE2
:104AD000002B5AD05D230222E25422681368402141
:104AE0008B431360E368E022D200934254D9002242
:104AF000F02109018B4205D0E021C9008B4201D091
:104B00000023A3626368822149000B40A1688420CE
:104B1000000201400B432069022101400B43606900
:104B2000012108400343A0698025AD0028400343CC
:104B3000E569382028400343256A80202840034344
:104B4000A06A8025AD012840256803432B60608B57
:104B500004230340656A102028400343656B082046
:104B600028400343E068F0252D01284003432068D6
:104B7000134343602268D3690A480340D36100238A
:104B800023665D33E154002070BD5C330022E254A3
:104B90002000FEF77BFF9DE780225201A8E701205D
:104BA000F2E7C046FFF7FFFFF0B5CE4600B584B090
:104BB0000400019191461D005C23C35C012B00D1D0
:104BC000C9E05C230122C254FFF792F806005D237E
:104BD000E35CDFB2012B00D0A9E00199002900D1EC
:104BE000A6E04B46002B00D1A2E05D230322E25455
:104BF00000232366A1634A46A287E28723644422F6
:104C0000A3520232A3522365E364A26880231B02ED
:104C10009A421ED0226813685B0603D413684021B1
:104C20000B431360E268E023DB009A4239D96368E2
:104C3000002B02D04B46012B20D1A26B2368128897
:104C4000DA60A36B0233A363E38F013B9BB2E3877C
:104C500014E02268136840218B43136022681168B6
:104C60008023DB010B431360D4E7FFF741F8801B7F
:104C7000A84201D36B1C66D1002D66D0E18F89B2AA
:104C800000293CD0226893689B07EED5A36B1B8854
:104C9000D360A36B0233A363E38F013B9BB2E38733
:104CA000ECE76368002B02D04B46012B14D1A26BBA
:104CB000236812781A73A36B0133A363E38F013B5C
:104CC0009BB2E38708E0FFF713F8801BA84201D3EB
:104CD0006B1C3CD1002D3CD0E18F89B200290ED055
:104CE000226893689B07EED5A36B1B781373A36BA5
:104CF0000133A363E38F013B9BB2E387ECE7320010
:104D000029002000FFF79AFE002801D02023236607
:104D1000A368002B06D103932368DA6803929B688B
:104D20000393039B236E002B02D1002700E0022790
:104D30005D230122E254013B0022E254380004B01A
:104D400080BCB946F0BD0327F2E70327F0E703274D
:104D5000EEE70327ECE70227F0E710B5EFF3108149
:104D6000012383F3108802681368C024A3431360EF
:104D700081F310882023836710BD000010B5EFF386
:104D8000108C012282F3108801680B68124C2340BA
:104D90000B608CF31088EFF3108C82F3108801689D
:104DA0008B6893438B608CF31088036E012B05D0C6
:104DB0002023C36700230366436610BDEFF3108111
:104DC00083F31088026813683234FF34A3431360FE
:104DD00081F31088ECE7C046DFFEFFFF704710B597
:104DE000EFF31081012383F31088026813684024D5
:104DF000A343136081F31088202383670023836615
:104E0000FFF7ECFF10BD704770B5446AA26FE56F05
:104E100023689B681B0601D5212A0ED023689B6856
:104E20005B0601D5222D0FD08022A35810210B4301
:104E3000A3502000FDF7DCFE70BD52230022E25299
:104E40002000FFF78AFFE9E75A230022E252200000
:104E5000FFF794FFE8E710B5406A00235A22835217
:104E6000083A8352FDF7C4FE10BD704770B50400C8
:104E70000268D36911689068A84D2B4209D19D063C
:104E80000FD58D060DD5636E002B1DD020009847E1
:104E90001AE001252E000640054216D1A04D2942F8
:104EA00013D1256E012D00D192E0DD0202D5400222
:104EB00000D521E11A0602D50A0600D523E15B06DA
:104EC00002D5490600D525E170BDD80707D5C8052C
:104ED00005D501251562802022582A4322509A07C1
:104EE00009D5002E07D02268022010627E30225899
:104EF00004252A4322505A0709D5002E07D02268DC
:104F0000042010627C30225802252A4322501A07BE
:104F10000AD58A0601D4002E06D02268082515621B
:104F2000802022582A4322501A050AD54A0108D562
:104F300022688020000110628020225820252A4308
:104F400022508022A258002ABED09B0606D5890690
:104F500004D5636E002B01D0200098478023E258CF
:104F600023689B685B0602D42823134229D02000C3
:104F7000FFF704FF23689B685B061ED5EFF31081E3
:104F8000012383F310882268936840208343936051
:104F900081F31088236F002B0BD0624A5A63206F75
:104FA000FEF7CBFF002800D18EE7206F436B9847B8
:104FB0008AE72000FDF71CFE86E72000FDF718FEBB
:104FC00082E72000FDF714FE80230022E2507BE7F9
:104FD000DD0600D469E7CD0600D466E7102313622E
:104FE00023689B685B064FD5226F13685B689BB292
:104FF000002B00D168E75821615A994200D863E735
:105000005A2163529369202B09D15823E15A023364
:10501000E35AC91A89B22000FFF727FF54E7EFF3DC
:105020001080012383F3108821680A683E4D2A40CE
:105030000A6080F31088EFF3108083F310882168F2
:105040008A689A438A6080F31088EFF3108083F3B4
:10505000108821688A684235FF35AA438A6080F348
:1050600010882022E26700222266EFF3108183F38A
:1050700010882268136810208343136081F310881E
:10508000206FFEF738FFC0E75823E35A5A22A15A8F
:10509000591A89B2A35A9BB2002B00D114E70029F8
:1050A00000D111E7EFF31085012383F31088206806
:1050B00002681E4E3240026085F31088EFF31085BF
:1050C00083F31088206882689A43826085F3108891
:1050D0002022E267002222666266EFF3108083F3EB
:1050E0001088226813681025AB43136080F3108882
:1050F0002000FFF7BAFEE7E680235B03136220007F
:1051000000F005FBE0E6A36E002B00D1DCE62000FA
:105110009847D9E62000FFF762FED5E60F080000A9
:1051200020010004574E0008FFFEFFFFDFFEFFFFD7
:1051300010B5406A036E012B02D0FFF764FE10BD6C
:105140005733C15A4908FFF790FEF8E770B50300DE
:10515000406A9B69202B28D05A230022C252EFF3C9
:105160001084593B83F3108801680A681A4D2A405D
:105170000A6084F31088EFF3108483F310880168C9
:105180008A689A438A6084F31088EFF3108183F36E
:105190001088026893684024A343936081F31088C9
:1051A0002023C367036E012B05D0036E012B0ED0A5
:1051B000FDF726FD70BDEFF3108183F310880268C0
:1051C0001368303CA343136081F31088EDE7573335
:1051D000C15AFFF74AFEEDE7FFFEFFFF10B50400DE
:1051E00083680269134342691343C2691343016828
:1051F0000A685048024013430B60226853684E49C6
:105200000B40E1680B435360A369226A1A4321688B
:105210008B684A48034013438B602368484A934293
:1052200022D0484A934230D01023E06980221202F3
:10523000904234D0042B00D174E062D8002B00D10E
:1052400069E0022B5BD1404861684B081818FAF7F7
:1052500065FF0004000C0200103A3C4B9A4266D8ED
:105260002368D860002052E0394B1A6B03231340A7
:10527000022B0CD005D8002B0BD0012B0BD1033304
:10528000D3E7032B09D1013BCFE70023CDE7082368
:10529000CBE70023C9E71023C7E71023C5E7042B9A
:1052A0002AD01FD8002B21D0022B19D1264840002C
:1052B00061684B08C018FAF731FF83B20004000C94
:1052C00001001039214A91422FD80F2293431A002E
:1052D00040080723034013432268D360002016E0F0
:1052E000012014E0082BE2D0012010E0FFF7A0FA23
:1052F0000028DCD100200AE0FFF7C2F9F8E701201E
:1053000005E0082B02D1802000029DE70120002348
:105310006366A36610BDFFF78BFA002800D093E701
:105320000020F4E7FFF7ACF9F7E70120EFE70120F1
:10533000EDE7C046F369FFFFFFCFFFFFFFF4FFFF7C
:10534000003801400044004000127A00EFFF0000E6
:1053500000100240436ADB0706D5026853682C49F7
:105360000B40816A0B435360436A9B0706D5026872
:10537000536828490B40C16A0B435360436A5B077B
:1053800006D50268536824490B40016B0B435360F8
:10539000436A1B0706D50268536820490B40416BDE
:1053A0000B435360436ADB0606D5026893681C49C9
:1053B0000B40816B0B439360436A9B0606D50268E2
:1053C000936818490B40C16B0B439360436A5B06BB
:1053D0000BD50268536814490B40016C0B435360B2
:1053E000026C80235B039A420AD0436A1B0606D5EF
:1053F000026853680D490B40816C0B435360704742
:10540000026853680A490B40416C0B435360ECE758
:10541000FFFFFDFFFFFFFEFFFFFFFBFFFF7FFFFF23
:10542000FFEFFFFFFFDFFFFFFFFFEFFFFFFFF7FFD4
:10543000FFFF9FFFF8B5CE46474680B506000D003A
:1054400017009946089B98463368DC692C40641B1A
:1054500063425C41BC4253D143460133F4D0FEF772
:1054600047FC4B46C01A40452CD84346002B29D058
:10547000326813685B07E7D5D3691B05E4D5802341
:105480001B011362EFF31080012282F31088316850
:105490000B681E4C23400B6080F31088EFF31080E4
:1054A00082F3108831688B6893438B6080F3108897
:1054B0002023B367F3677F32B35054330022F25492
:1054C00003201EE0EFF31080012282F31088316880
:1054D0000B680E4C23400B6080F31088EFF31080B4
:1054E00082F3108831688B6893438B6080F3108857
:1054F0002023B367F36754330022F254032000E003
:105500000020C0BCB946B046F8BDC0465FFEFFFFF4
:1055100030B583B0040080230022C250FEF7E8FBC0
:10552000050023681B681B070DD423681B685B07F5
:1055300016D42023A367E367002323667422A354B1
:10554000002003B030BD80210C4B009303000022EB
:1055500089032000FFF76EFF0028E6D00320F0E764
:105560008021064B00932B000022C9032000FFF787
:1055700061FF0028DDD00320E3E7C046FFFFFF0105
:1055800010B5041E2ED0836F002B21D02423A367D7
:105590002268136801218B4313602000FFF71EFE71
:1055A000012814D0636A002B18D1226853680E4971
:1055B0000B405360226893682A218B4393602268D2
:1055C000136829390B4313602000FFF7A1FF10BDBA
:1055D00074330022C254FEF7F1FAD7E72000FFF738
:1055E000B9FEE2E70120F2E7FFB7FFFF70B5040064
:1055F00013004165582283522832002181505E3ABF
:10560000C267026F002A12D021499162026F2149BC
:10561000D162026F20491163026F0021516301685A
:105620002431426D006FFEF72BFC002826D1742335
:105630000022E254EFF31080733B83F3108821685B
:105640000D680132FF322A430A6080F31088EFF3BD
:10565000108083F3108821688A681A438A6080F377
:105660001088EFF3108183F310882268936840203C
:105670000343936081F31088002070BD80231022C3
:10568000E2500C3B0022E254543BE3670120F4E774
:105690004D51000831510008094E000870B5C36F24
:1056A000202B2CD100292CD0002A2CD084688023D8
:1056B0005B019C421CD07423C35C012B25D0742356
:1056C0000124C4540023036603685B681B020CD5E5
:1056D000EFF3108C012383F310880468256880237E
:1056E000DB042B4323608CF31088FFF77FFF07E078
:1056F0000369002BDFD1CB07DDD5012000E00220BC
:1057000070BD0120FCE70120FAE70220F8E77047AE
:10571000F8B5CE46474680B507000E0015009846FE
:1057200008AC2388994609AC0023E45E102000F001
:10573000DBFE00280ED00780468085804346C3806C
:105740004B46038144810123037300234373837316
:105750000633C373C0BCB946B046F8BD014B1860F0
:105760007047C0464806002070B504000D000028B0
:105770000FD0002910D00B4B1B68002B0FD0197BCA
:105780001889FEF781F829002000FEF79BF8002019
:1057900070BD01204042FBE701204042F8E70120B4
:1057A0004042F5E74806002000B583B06B46D8714B
:1057B0000A4B1B68002B0ED0197B4A425141C9B2DB
:1057C0001889FEF761F801216B46D81DFEF77AF8BB
:1057D000002003B000BD01204042FAE74806002047
:1057E00010B50B4B1B68002B0ED00A22985E0028C8
:1057F00001DA002010BD597B4B425941C9B280B239
:10580000FEF742F80020F5E701204042F2E7C046EB
:105810004806002010B5002809D01020FFF7C4FF6B
:10582000002806DB7820FEF72BF8002010BD1120A1
:10583000F4E701204042F9E710B5002806D02920FE
:10584000FFF7B2FF002803DB002010BD2820F7E798
:1058500001204042F9E710B5002806D02120FFF7CB
:10586000A3FF002803DB002010BD2020F7E7012064
:105870004042F9E700B583B06B46D871C2B2082A3E
:1058800013D88B235B00D340DB0711D52620FFF70D
:105890008BFF00280FDB01216B46D81DFFF764FF4B
:1058A00000280BDB002003B000BD01204042FAE7D6
:1058B00001204042F7E701204042F4E70120404246
:1058C000F1E700B583B06B46D871C3B2012B07D99D
:1058D0003420FFF769FF002816DB002003B000BD6D
:1058E0003520FFF761FF002808DB01216B46D81D3A
:1058F000FFF73AFF002804DB0020EFE701204042D9
:10590000ECE701204042E9E701204042E6E70000E1
:1059100010B582B004006B46D8713620FFF744FF03
:10592000002824DB6B46DA793A235B4213436A464C
:10593000D3710121D01DFFF717FF00281ADB114B8F
:105940001B68002B19D020222240997B914217D04E
:105950001888598819800B4B196848801B689988EA
:10596000D8889880D9809A73002002B010BD012099
:105970004042FAE701204042F7E701204042F4E7C5
:105980000020F2E74806002010B582B004006B4604
:10599000D871032804D017D3431FDBB2012B16D8CC
:1059A0003A20FFF701FF002814DB01216B46D81DC8
:1059B000FFF7DAFE002810DB0B4B1B68002B0FD023
:1059C000DC73002002B010BD01204042FAE7012044
:1059D0004042F7E701204042F4E701204042F1E76E
:1059E00001204042EEE7C0464806002030B583B0B3
:1059F000264C2568002D34D0904235D8994236D8AF
:105A0000AC88201880B2A21892B2EC8861188DB2CE
:105A1000E418A4B201A9030A0B704870130A8B7032
:105A2000CA702A20FFF7C0FE002823DB042101A84A
:105A3000FFF79AFE002820DB01AB2A0A1A705D707E
:105A4000220A9A70DC702B20FFF7AEFE002817DBCD
:105A5000042101A8FFF788FE002814DB002003B012
:105A600030BD01204042FAE701204042F7E7012023
:105A70004042F4E701204042F1E701204042EEE7D6
:105A800001204042EBE701204042E8E748060020C1
:105A900010B52C20FFF788FE002801DB002010BD88
:105AA00001204042FBE7000070B582B015001C00E9
:105AB00006AB1E78244B1B68002B35D00B00020070
:105AC000FFF794FF002832DBFFF7E2FF002831DB0D
:105AD0001D4B1B68DB7B052B05D0062B19D0012045
